{
  "contractName": "Groth16Verifier",
  "abi": [
    {
      "inputs": [
        {
          "internalType": "uint256[2]",
          "name": "_pA",
          "type": "uint256[2]"
        },
        {
          "internalType": "uint256[2][2]",
          "name": "_pB",
          "type": "uint256[2][2]"
        },
        {
          "internalType": "uint256[2]",
          "name": "_pC",
          "type": "uint256[2]"
        },
        {
          "internalType": "uint256[162]",
          "name": "_pubSignals",
          "type": "uint256[162]"
        }
      ],
      "name": "verifyProof",
      "outputs": [
        {
          "internalType": "bool",
          "name": "",
          "type": "bool"
        }
      ],
      "stateMutability": "view",
      "type": "function",
      "constant": true
    }
  ],
  "bytecode": "0x608060405234801561000f575f80fd5b506140f28061001d5f395ff3fe608060405234801561000f575f80fd5b5060043610610029575f3560e01c806312a1289d1461002d575b5f80fd5b61004061003b36600461405b565b610054565b604051901515815260200160405180910390f35b5f613750565b7f30644e72e131a029b85045b68181585d2833e84879b9709143e1f593f00000018110610089575f805260205ff35b50565b5f60405183815284602082015285604082015260408160608360076107d05a03fa9150816100bc575f805260205ff35b825160408201526020830151606082015260408360808360066107d05a03fa915050806100eb575f805260205ff35b5050505050565b7f0e900609ff0f87478651299157453d787111c5424ebdfb61d8db7c9bf2b7deec85527f1caf54a46015c0fc4420ea7870d158fc3b124585e1839f394e51f800e863748a60208601525f608086018661018e87357f045b475902d8e8f56d39219c5f5d8279d8384fdc918bba0ab8eb756638645c0d7f22ea3d99292cb28ad4d8d3c49bb38311cd8472e0ea45b6024e608ad7ec2b2a2c8461008c565b6101de60208801357f07623dfe09c9b9f51d7f1b6002c51fc56dba5f822d71063b1a7cf5179d16b96c7f11086d833ea84e0374e3f1afb45ab1ad131116f7537437d4dccb84287f7effd38461008c565b61022e60408801357f032c1e91af3b793d1aee13acdef653fa713470d413764803c0cded10bfa4d6167f24b8e2cb07cfaa5799c7db6af6ad2f20432a925a8ab037568557ed997056500c8461008c565b61027e60608801357f1a800f0f58e7a22b00e4e8334c9f262fe70ffdd6882be25dc0bbc04d52cbcc317f0d24772cc8279e6bbd13adc898f83fcf874f21e414c984a8853ff2e4d29f89be8461008c565b6102ce60808801357f1f12404afa03239da1ce6b0bcedbc0e595c1e5297883d7489f7bd02676f0251b7f2c406400daa59e14e22b29e2b58741db19d732b6f6bbf7b60f42c8f14474c2378461008c565b61031e60a08801357f23367739c558f0f33744fc0f141467383618e5163bee2f98ba62683f51d89fc57f19c031404e45e0964165b837bdb57351dcbd5ff9a3091b6e9c1fb025a68fcad98461008c565b61036d60c08801357f1415095baf24582b5e5bf080bd9041506459cc7bf3a58f0d44f3785cd0b222b17e5f3874a572defe3a4de236375843ee6a5061419d28c9bee6a8df7efdd9536a8461008c565b6103bd60e08801357f13a337f94cfd536a0a055dedbb3cc861123cbb9392a29641af393d13beb7e06d7f0c4b5de8f242f4458cde6b5949b1b152143d82820b988410f8b720e73ca861f78461008c565b61040e6101008801357f2cae3f028446f1ddc17f1982936c321542c89a64933066621ea40b7854c5a8137f04525781802f4775ed68378327d13f0be20d18466ff317a8d18ee9e7104a87828461008c565b61045f6101208801357f0c6bb1674dce7d2a05430757ae715e3a97ce119feefdf2d29e6976c0b1dce5127f03f0a021796773862567b9024fa81073fbd6466fa70d98ab9d5bea3d7062afb78461008c565b6104b06101408801357f0aaa13cd62b375eaf34d836db4d7ee3d506f622c38258eb13d7b0f028b2441097f30418c3c3838daf561fc827196aebffe6354354298a75904ab0461281b8c83348461008c565b6105016101608801357f04237f34ff929882979ed09941a381c74a6a2eda3f61bdba4ee5b50313d146317f2bc4a805e3f9d777aa442ae112709948bc74b897601badbee7956f28c86d7df48461008c565b6105526101808801357f1626ffab717d0046422f7e7a3bb9025534f078c8c18a885a9df580e9f0d5d17d7f178d319b73d18c12aba440af16573353f42d7d7ffa7dae2ceba8d0928d6f271d8461008c565b6105a36101a08801357f022bc476d4b7b0d9845cbe25f51cbb029f7c7c9d5a0a647985b48719aaa3dd137f10b6dac8a50489a2606da649460541aec7832a51aaba83ac30d03cb5aa63e92f8461008c565b6105f46101c08801357f0eed621ed14725c181275a879bbf85752b582364db95ec74604b9efadd737a0e7f1ee79c209c1aad03f8b26c456561fe588910e4272aa75d9a8e80bdaeaf1a64ae8461008c565b6106456101e08801357f1bc5b7d7c5731e56e4c6a2da3129df0d12acdf8c0ad65538dcc31cd0525347197f2adfcf3f5b7f0d8b9e15fd9d5c1da09b5c1d44c996728f30f2edfef62aecf1f58461008c565b6106966102008801357f2203ba36f4a876d5ac224a3fca5e29aac7582b4368f6e1477eb189bb7316f7c77f201abf6033268ebc57c3f7327f489f7d52425072d7e585c5d33f13a2bfdb533f8461008c565b6106e76102208801357f1c5df8f49fa7c87dd35e676ad6e32c6f61df9a2a7891cba932579ac03cfdea807f12c1fd1eca318d8c697db7e8d0c3a4017f1cfcb1e4750335a07f111598238e408461008c565b6107376102408801357f0e417bcd6abb80278e1dbccee745255a3504db7af8113aeae28112edf5c6412d7e813ddc6e62f573af091b9f770dc79d39184917554165f80e8b06c62054790a8461008c565b6107886102608801357f105bd9b23e6b1cf590689ad1664368c1967d492bab7668e2e9c1f196094d35957f1d297078fbaac33534a6061baad146b62e334de195ace0e04761bb3b6369160f8461008c565b6107d96102808801357f19d285769809b93a6cae6a13a8b412a943e00a63ddcefe7e651fe85db7bca5967f0adfc985569c183886d26c05b3c490371d9dbbe2a6eea9a4e58746af076a0f0e8461008c565b61082a6102a08801357f0b6b5f54b1dfd53e25a9316a158e6a0dd9a52e4f9f2d4807949b3692c395d6ee7f2d3e349e2447d08878e288ae52bdb3e72fa97e09aca3de80958be45df77f610d8461008c565b61087b6102c08801357f1393155c131ebb78dd5c1e54432b15e8fdd8914fa94130b7da47d53fd713c4067f27f62f63ee43cd6c43e2729f06aa2587b6e8b8a5316583e1d63e51368ba767378461008c565b6108cc6102e08801357f1154027dbd13fb3ddefeb35f07dae354e2dd18675d20eb14b7b6277de17e18f07f262b25797f48d851bfb3d21bb50a4d69a7601eb384aefeba77dedd6a49ebdf648461008c565b61091d6103008801357f25ab4b72e2b94bc3de9375cd042cf586848496605a5a0ef1c5456e365e6044037f2a67bdd33653d13e94fe00eb6e031e6fe81fb821233ce3f19d9a5be0ac344c358461008c565b61096e6103208801357f0a1c0a89a4b4aae606a7f1274e28e14f82220c64a3ee32189f475a51e6a2e6c37f10c05f5220c5c302ab6200864b23baa5b529da4e603ae63b2f20fefe88b2d88c8461008c565b6109bf6103408801357f0524d3238ce9c84c44140290db4202cc7eb24c9ae07cbec74569a3b21fbc4ec07f287cefc3fa501701792512780388d58ce1820108d8d3e54ca38987137f4af09e8461008c565b610a106103608801357f2e1138e1d208853af9772350debfbd2e5ad55059fcd77a804c4d8a1401922e517f0ab7a5032a90223a7e5f51efc85b6b73dece1b5d317042f620e0ac2d2c80f1bd8461008c565b610a616103808801357f0a223daaa7a5af732ae567534e8ed44d38b8fea4e7100a1f671c327dbdaac9b77f01dca14acb6af7afb63af72fe38cb90b9292d2e69d95f67027b199d9dc64f0298461008c565b610ab26103a08801357f1d0d2dcd6ad0b0e7be637901ed86da39469727710bfa1bd7710e41e6edc938047f1fd30e35b648792b6c7b68b50aaae3222adb8b382d1bea85180da831005b06238461008c565b610b036103c08801357f227289a87bca77fdeaf4880a61ecd8e115fa2bae88612cd4dd897a41bc1344147f1314dd1a4a119896a2f18f8f2faf3bd8952447f2414d64d5407ec4db11d7a5718461008c565b610b546103e08801357f204ef40a53158ea6e7ac9238b8826260e5b308d84e21e39aaf0c7c301619ac4d7f0c46a80d903f51655257cbc35e8b41b67af7115c0ff5cdd471de543493a980a68461008c565b610ba56104008801357f21e0b0b9526b0705253dc58150ee2d220a82ea390959ded9487097e63ff558fe7f0b14620e76ba45775df67df093abe95c6cb7688d8e73f1bb59e720387a90f1868461008c565b610bf66104208801357f07bf0f62fc21fe388c1d5266296ad4763dd0d4c82adf77aae901a96b17d824087f27c58215bc3ec508cb221c44b07c436939947c1b7ef6cc84328e3e3ba3a0564e8461008c565b610c476104408801357f0724cbe89596aea3832602bd98065051a7a6ebe2294e4a591fe9c659331b6d2e7f05681a5c2ec27bba04b0d0990c1bb7d9700853a2e397c829e4039776f5ca11228461008c565b610c986104608801357f2b314020b798ffc966f5ae1c2d1006d31907446671eb25213138af22dbafac3b7f139f0b7027b505244455089874aa2d1d318c4b9690acc10e57d53a4725c938788461008c565b610ce96104808801357f1be2f8da3b9b6b3a15b356946e0199b00e7adf70b38312d27fb50963b8b310907f05d275e359fdeee8af901497a3cfef684283c7025ec34df2546bf7dbf2d9fa238461008c565b610d3a6104a08801357f25ebddcbf6ec7db218757736a1cc6df687abaeac347532dbc05f53dbb2f9c8a67f1c44fab34307385d8e239d8c7f8087ff8fab74f0fa5e3217805b15192253a8498461008c565b610d8b6104c08801357f01798c8227420db6bdfef78301e65e7d55043703b8575b0b0496fabdb51f81877f250f763ad315f3909f37918e0c9fac16b3e54be2d1c789944dfcc986e90c59ec8461008c565b610ddc6104e08801357f1bd449098be82ee0e9ab774b64564a9a7312ab3f775d884c33c6d23c977bbe607f2543d170d8e9dd4f993b7f20d353b736db4b7db717529762ce32a0a7f9b4aec38461008c565b610e2d6105008801357f0be49ed0e52356b88e4e9770bfb9ca9854ad5c3ad2fa0869981b98b5de4aa8567f2513715cd02f0324109ad6dc9c8c9234781ec13e0b085e8d09919ad8621969ea8461008c565b610e7e6105208801357f030c67494c471e3d317e247892fb6a48e4ff0d0b44436b8b2298f48b5bdc0e3f7f1993afdd8cc8cd1768863537c491e1fa45b34eb85b32dfd47a53793b7a8727018461008c565b610ecf6105408801357f301795bd7d4c67c8d9e409fca74d62999bcbde4655186ba0188667f858e0b0387f08d71bb4a5e06fa31d23575688dc9cc70e05c8921d1f1472b0d2e651a42c7b798461008c565b610f206105608801357f10e4b80f8fc075034234752ab7a2eac6049b506584377a377ef8a8c3d809543e7f2cc8560f3fbc22b54e2e8b69c66eaa1e63acce49a2ed4ed2b6c54793a4a732468461008c565b610f716105808801357f1eb3375b60d5e9d73816f3569ab4756d09e3d77db30114d2b49d7ede043a95c97f206ebdc29f58b843b6edd3d6b080994dd8cf13eb189c60b57e4a08ab404a0a428461008c565b610fc26105a08801357f03d11dca2125a33f1d9cb2dc3d2c9a307b8f549689c75ae72a63a0659c5da1327f2748090120d86b97650625cd2c879bb8e8432619a74a8f5096f56e6f07c47d028461008c565b6110136105c08801357f2ff76628742572fbfa91a9c25e1e574685a063186c42e36897690324fe4edc6c7f2cc3055d873cdcd6a0a23c0942c073b2a4f6077ea915cf7e628a96085e9c660b8461008c565b6110646105e08801357f0a8313463a61f1af0085400fcc63663a060680ae6d3c91532b28463e4e21ae957f13c96f649e6c3c764d129c4d1332986d90c6910a80ad38b843b2e40f40daed958461008c565b6110b56106008801357f1ca6ca9d9299d3877fc7ce4f5d7aeb3a9c392031819c529560bf0477e4b285ca7f2339aae46f8393a06bccbc8bf83fd45493d068d608ff70319cdacf8f1d5e7c458461008c565b6111066106208801357f17066ca8282c48a8e13edecfc8fdc4f69d485ae3c3f47dc18380a1f20d2ded537f06ed267d8c6c2592eb4b2d08310cb5d744a359839c218af1e24c04a5153d07be8461008c565b6111576106408801357f1e441723be1171c11dab565bfe25d76bb9e7ddc21f8f56f1d79718730358a7cf7f0d614b902a43b6565fa19417479eed91a2828a60b71870ffd461dbd8c18008a78461008c565b6111a86106608801357f01958a5d97c3dc81dcef86dece60e30247355e7638fec51fa980c5d1f1eea9627f0d41eb92552c64799698ab44bd7f8d3ed10726281ef31e3347fa8c71ede4c9be8461008c565b6111f96106808801357f26061360904425ababc0e3a7b5d0383eb9dfa6b96b8e834607a0d3caa94b851a7f2a774e416324c95ba15a2fc6252b587ea2c25cff442889c7d7dfe5b7a062c3018461008c565b61124a6106a08801357f252533d8be963da878d011646d565b4f2bea2e912cccacdb99400fa7e70200467f28f7e049f80f74fdd840caf1b280d6d5b140c16d3e397b20a406d3eddd61b7d88461008c565b61129b6106c08801357f115fb965dfe04f374300a672306369fc5c03d3ca9de9e985482178c5642ad0b17f2eee88e638284accef51203644e647949403ece8c71a0ee485239d8c400e7bd08461008c565b6112ec6106e08801357f0f649a39fabb244a7b942ddd604fc3d15b041dbcc0c439f2e04a753f226ba01c7f01cde3e0aca6eb64d833e8dc9fadb313a02f6f67517f808e96a204ee36ce71538461008c565b61133d6107008801357f2eab6bb7718dc57b4e6686973065f66f95b297dad51d205001d4556791bff3de7f057df2ab387f7b10b0f14e5f174ed9cbcf66bf7ce907fb6dc13e242980ec80a78461008c565b61138e6107208801357f2e646fec2ebcc46c18ec63724eb4960bd17fe07d448649bdc7c8416c0783f6137f1943beb3e8f7fc23e60003a41e9635fd66567119aefd4085429298c89090bb878461008c565b6113df6107408801357f1a12c3088943dee18cb3e4e252f00dc006ee6e9e03013ea1b0f523b5fe68a8a97f105857055bf4a725718e7a9aac0df2203bd88926a9ccf85516bbaf5d31b82f3b8461008c565b6114306107608801357f052d28bb52acb127681f21fc3c1eb3be4a0bbeda651f7c028f763f1d299537cd7f09c51e38d751025d7dee8b06e1c7055bf3e4ba3b2d9b52b2c6c5fa302b8256f38461008c565b6114816107808801357f2fe2bbd8969cf788d61b1ef48876dd7b0eabe4a34863523527d2909d7118e0837f1d58b4f30d77ba4d6ffc50124953581a9e5d0ccc20ab58e03079d3c74f425a428461008c565b6114d26107a08801357f25743075fb4680352add6cd8fce887057bfc9b01abd3e7ba766cd4823def16727f1f4b9e27f34d1e6fa4add700c1e6d0084490c162a4a635ec502ce38a1af5b0548461008c565b6115236107c08801357f0f82e25333c309f5f42d133aea481a29cd3fb749f426d4afa5fac5d07895ea997f069acc3a83d53c5ccbf178a6210535bfb08cb3c327f678f9a4aaa999f7f97acf8461008c565b6115746107e08801357f097300828a6ca8b2414e44f94387e232eedc660f9b602b86dbc03fa2d1115b117f18adea7da75bf2745979066159c10f203a83c36b4764ae3ac8dd60baebed62438461008c565b6115c56108008801357f24d3b7dc63d77b8552164cf68a972e3a17c438053410a07c0cb1de6ad217a9447f2fe289d8236fd9fd606c39b8592acd9b5706af06a6e9e4cad3f8a11cc65eada28461008c565b6116166108208801357f01c8ff0af06fc90a6b77896bb5110ee7677bff33d169440b8bfa9eb4eafa41697f0da678dabe98cd9ffb1c522f9342047a7da782aa49fb093aa6aee3bd790680508461008c565b6116676108408801357f1a4205c5c2453f8bfbd8d24cf8ac58eb6af3e3e044c032c794fab3ac78b538fa7f2730670d15c2cea524141e0b91363df5df3d1dfd0c0150bcd761bead7faca6188461008c565b6116b86108608801357f1b40d64850798c482124beff9084c28e77bbbaa93c1cfc5460ec6710f36e2f6f7f15619a401e1a7cb58b58a8a58cb211cfe96d9fcf07ad1d36a8b419d78f52f7508461008c565b6117096108808801357f108f2353cffcd862a6647b1de8add6521a6b72f343dcbc0f9f867f7f517f05777f1c40b14280753cc885b66d93e3a90b5b70d08a8c1ea859ae039897f0cad455858461008c565b61175a6108a08801357f2d2ab0ca5b8e05aa2461a47a4e074db5d09d1eabdca3910e9993b35227a700bc7f0392568e8a4e33f8294b3ea9bc7f790dfa6c30e419c407138a01b193392056018461008c565b6117ab6108c08801357f0e7a5588c6e5f0ae85064a125a044f183d593f0c3aecda90cc9655aa4e6cff817f2dc649b9346886be390bde9971ea93556c3159bfde56101f418b1002709652458461008c565b6117fc6108e08801357f118aa389ec648b5f344964a326daf6406450a25063181c1bc95ed9c93983ec317f19e8ca34c93588196e6855fc2fe043eeec6a5a6b31f2c9d0f4fbe85274992b578461008c565b61184d6109008801357f2cc0ee0c0f7095ace0f7c609195a490a6f115b5a88cc474bde75c1e2691c5d517f2b772ae7250c997ab20e6e28312e18a488f47279bac7c58b871261cd935fcb3f8461008c565b61189e6109208801357f1ad5887abb223e4663b1d2eefb97a930e48c336aa879711a3bf8d71a9c16ab887f21b67a4c0fe0b5fe041aa99357e479643e50fc4a346628e26d8c68236b042d398461008c565b6118ef6109408801357f0ae2383ff82c21ffa13969469bfd96317d0ca62d664948c8af0e02a4b85f34b17f1b0d93d81b0f8ef8a80c9f5344696f767dce09255d96c2c14859eb95061d5f208461008c565b6119406109608801357f09488ac9b8a776fbc4ae50d6af2933e39df2344c0e8adc04bd144b7428327c037f2f0558ecbf46bfc40362341083f7b2431010328d16c69a631b5ee6ea47f7eed18461008c565b6119916109808801357f10a82e9f6c2c9e6118fc4431175b2b17dbd96efb93e2a97679577a6032a8977b7f1f9bab1715a7396f5c894c1d1a28293e1c1ef49710434748837df2ed41e61d168461008c565b6119e26109a08801357f23d93dee7af5e959b3141eec40da0738f42d2ee344228b5897f3b807ff7a1c677f152f097c1ad625b1a44ea2b0c5ae098bb367d4507ebf9d50e24d0162b23ee7358461008c565b611a336109c08801357f235833a74779c3416a82330936d2fda9b9d3d37764216a667773cc6c79b07c017f101493559914d66df58a5c1e04312f1b129a568f724add26550963ebafebe87a8461008c565b611a846109e08801357f0768e603ce492243c41cf87f616586a42c1530bc99e93db241c75783ebb3fd537f26bd8e88d5336291227af1616c2c32e03d648c05fb866813337cfc3bd18008ab8461008c565b611ad5610a008801357f1110699fec7075097e42b6aeaffd5e850759712978edadeefeb3709bbd50f5817f182a9abd998311b84c13945f1c3acf7ef1caa7402d10f940cb85d2751387362c8461008c565b611b26610a208801357f2f756220978e34d180211b87bdafa1a5d61e0742f3e4650d69bcce280e413c797f0c8e1e6505b800178724f503eaf35e312d2e6a0eee876fe20e6a634ecc96d1808461008c565b611b77610a408801357f17b3d12533c45081bec2d4c4d1734987bd760afd0935abcd0f6e5ba27c547d9a7f0d26f2bf0479f6a6291009c09534b8b53e7f61a1479da61d088dc023664c17408461008c565b611bc8610a608801357f245fae2b55f826de62f593b52f6cb0555609a23c40e0490e18192129815df0447f1f9160867990c7481180966c5537ca77ca0fb5c4cecbd33c8afb028c8398b5648461008c565b611c19610a808801357f2d725120b857abad09fba6f5fa164c8a7df448401ef0efef81807a92cca3bcc07f297d5566eff445fe14706e4d630f8eac9cca7964f837153ca7625c765e8e16368461008c565b611c6a610aa08801357f19e1fa69dc38951a7b4f740063772edcfd24d301663a10dab868e365077f010d7f0d3c0432a0b57a2fff943af6cac60b00a88bbe292e5b1df78f5564bf3426c80f8461008c565b611cbb610ac08801357f2d42ff054a6913b813a6de0839d020abcd51b28431ef918fa25221db762d08c57f2662209e091d6728928a88370e18269706d2b49587a9c58ffc3ea8bdab65b6de8461008c565b611d0c610ae08801357f0a212223ad5ddb011d5e31517079ee96db436efb465772da088eb0540a879e9b7f0cd51a6c8c38dcdd65f135c6e3b13ccc125bc13d7ac76a8a9c0f9bfa658fca598461008c565b611d5d610b008801357f26a9d1e79bf977f8726ce61302650c2c278552dbd5bdda9e2d1931512d3b908b7f0bd89a3b9f0f1ba0cf584539feb1ad1a59df7ab361b1c1174ce33a5b72bb838a8461008c565b611dae610b208801357f29197a21c99e616457ece0faf473372aafd6bf63974914accd53eebcde6a61dd7f2ed80d90c9af5a48e05476e54b5132bedcc19212ef34abeed2daded75c539f038461008c565b611dff610b408801357f03d85a093ea0e611ec12f5bbca93b9046de71dc91b427987d977f3bf500fd69e7f25beab945237afb76983e62fb30d23e472ab1a3bd76c5a652cd1d14b0dc1434f8461008c565b611e50610b608801357f2d9defbe64b7ee5806defec0a17e84a418fda34d3df59f64dbd17c1b886f76ec7f1a6b6276401b25b9d5980beccee595abf5a18d0ae0e3a743d1b9da1c61a6ab988461008c565b611ea1610b808801357f03b5c5e412af9b292c09efeafa1a3b4acf3c8b2fd357df217f83feba9ca1e6077f1451bfaa66da2ebd92c17f16352de030b583a3b67309deb9096bb717361e9a688461008c565b611ef2610ba08801357f0bef1c6f059946fe9f917b7287be9659dce71f9446f45e261c26e85ddc0360b17f12ac022e3f4e6106452b350f5e0316794d29471dc55d20d37c75ed551bdb03c38461008c565b611f43610bc08801357f2d9536e97a1a626cee92763e3b3fe74d0925507dd0444628553ec4c59ddfab9e7f1c49f267c2cc974189a558c1ab66beed82fcf31cebc44e22e227f45ae7d5db3b8461008c565b611f94610be08801357f12c1fc694c6a62a25d74f33641950115cb37f14a77e3adea85d7643999780ff07f1dff506baacccc4f3c0ea577613ab3346f5e75dc291493208f3f644913f7517e8461008c565b611fe5610c008801357f17dd5311c59bf739c9e12d5f7fdb84ac28f55593a6d913c9c25cac39886be8097f0bd479092307560d951bb957a3841139af573273a9f52ba97dff8907ab3cfddb8461008c565b612036610c208801357f16b782c9d8ac4128338101bce291d078a38c02a8d4a9c4b1cd2e0dba70cc061c7f252dfe94b499a105254c789312155deba403521ad8f6689a5f15a6211ed672cb8461008c565b612087610c408801357f0f76888a45c8d5fb54c63cef348bfe2b839495f352b2d965586969b5d05604257f1dca7bf8513cb99f8626d8d734968921308bab4e8747ae62f8eab770014c59d98461008c565b6120d8610c608801357f16a4fdaf1b9085ab498a7eb8021dc40b7760364acfafb6033149a4bb47e8de507f2dcc0de8fe73cce4b0827dea1aa690fd7122432f45b60ea8bae437c8a8afcc818461008c565b612129610c808801357f225065dc60c927354de29156262b6a68d84960b6b5b112cc57dd5c265cbfeecc7f0f4a29f914e747b938aee67a4ef72e0a101095b19ee59ba4da4ab614704ff9908461008c565b61217a610ca08801357f2e8c5b6cd360f311863d13975bbd69b6ca7e55ddb065d836f32713acc8d9ee517f2f97a5d6dfaa1130f44d0e859ad036d2dab42a77d0367d1526aa72dfda252e0f8461008c565b6121cb610cc08801357f0d28daadaae90e72a4202413eef6a168b4f7c16d6c0030efd60e803f2ec3be297f0b745110d4c832bd0d438e953e591e8741f938ee4cb13daa12acb40ededa06bb8461008c565b61221c610ce08801357f06bcac69cad556b085a862057528adb223e6e9d2ecf63b830051d6a8ae1ffc847f0c6712e9c3ba904fefdce9c0aabbb4defe74f8dae990967e51e0e38e75737be68461008c565b61226d610d008801357f075ae00597a62ec0e82cf6dc8f894dee2534276c39a73df266131c212f061bec7f1cb3a6372bc0ddde3bf05305bf2c9f067a812a53ba5bb8b61fa293b43dbe22a58461008c565b6122be610d208801357f1543bb3daa5dd9a56ca7c7c4ae87575554a9b2bc187c668b568d48a58a25a8da7f066e3b27ba14cf87cb05b166590a5e82128715d780050e12a6c07162cce986408461008c565b61230f610d408801357f20f71b736bb5b5f18c27e18db9221c764662edff8a4a6816407187bf90bbd7ca7f1b5ecf9d98209eba51d88ef901c147329f8c6f74ae018f63350b4390e7f4960e8461008c565b612360610d608801357f22da7d542dd4449552d31c4888321a865c908284002d23edcd681d9c1bbc24407f1183ad22757bf3df2777977a3ea4cca43beb0f22058cbd1f9f88d0972b7f4f828461008c565b6123b1610d808801357f09ac63ef674f3b0bf0c694430b75820cdd02b8a8d44ff176227b9e8d02c8a0807f0d18fe3671ddf7dc8b0fce808f287dea0f15c4624864fe294abc54fc9d11863d8461008c565b612402610da08801357f23ac520bbcfdf69d610155ea8c717445ae9d16842f0539247e019587c3a575487f300e76f6f0cbf91090988747ddaa29b44b1d532e37ba815760e0798aa8d382c38461008c565b612453610dc08801357f2e1e6a16333a0e53a7be15b8f812588b611ace2ccfc33cb4835cad52397afd887f10ad0fbfd5a0f5b501e4fe83ec7d92a26d65651deb91c0b0a0a7574a221277b48461008c565b6124a4610de08801357f1751d9f4bae0ac32ea8b7626401d85d847b239039b1b86d9f2a9e82f69bb80a97f2e64607390317f33a55be73634fdd1feb459b3bcafded5017de0b66c3cd3b6e08461008c565b6124f5610e008801357f02766cf2444103bdb78fef514fc0e521800bacee72671e0fcf1c6cb32196df527f0fa9ba3b5459d86a0ada39cbf20fbf7178ff498f0ac4b07df948207207408ff98461008c565b612546610e208801357f21ebef7d904e6687eb25244dc22548f68cbc244bf2cc9e616392bf799fac5cbf7f1515dd3c3375e8b3a5e325f09b7042b27d6f5d1b9c8d55f01d09bdb628dd87d88461008c565b612597610e408801357f0be1955e2bdb6d5fccd0b75b310985d3bf505e40ac13b7b99d9ccc506e2d6a797f07d7c20a16a7a56b171dccea8db809e08d1bb08102c52fab4459183045a4d17b8461008c565b6125e8610e608801357f245802db4ea53a460e3333c0b4397b5cab30448aa079e103607b7143c25a7bed7f2eb778adf8403cc12ba1e1a57efc88f90145951d0ea20c81718633e6b522b5448461008c565b612639610e808801357f192f9fcc9f090e65e3e3eee72126b0018f012b412d03bfc4707505a54681e69a7f2c6e19779b967270c2155426686a387cc337aa2e89fc963e3325515d26c31aa68461008c565b61268a610ea08801357f10604bf4f929f141f25f51f10524194949cc5a7daa3dbfdfbac3b0f355a54d017f09fa2b5ad7034bb944f4d10127fb32d1a1342636444406699b312ec2446aacbe8461008c565b6126db610ec08801357f026394f85be70a8aa386f725f636e6c1a98d637c9e6452d67e4ad16dd346a7d27f1b6c03eb164b4e9bbfa19a995f70e7e7f32a422d6a278f7768025b5ae99e439e8461008c565b61272c610ee08801357f23be2c78ac15bcef1a4ba484ba581a79f1a5bb65b5b9fa4a9ab02ba1b1bbd0c67f0df711f29da552af48d7a02fbfda49dc8a8cd7a055448004529fefc9df6bf95f8461008c565b61277d610f008801357f1fdcc1eb99ed950a944e990d5ce6f26d1d334001e16628727d3ea9dd6d21a18b7f1cf1977dbc3018d26d0e1b41269fa4b8ad0eb400e41216b22f59db1f0b93a85c8461008c565b6127ce610f208801357f0402e047ee6bc9691705d2393c3104d04c311bf680b5a78cc4ec2fd8c6f80f647f2a2ff102fa720e675db1fad850f2dbf44668b9d8e2e7593c944daa38474781c08461008c565b61281f610f408801357f068dc18e817006335823212b112871f1efafb4058a36784df35c9a52383bc97f7f114f99a199513849da102f0e2cb50975948e175252fba0486cb8010a810060068461008c565b612870610f608801357f0250b3ef9cceaf2c36be4401b9b818d90fea0ceb7c7788bcdff83f6f521b94d47f2d42abb241ca269d43a3537a2e52c28f44759ad8e355135d7d654fba377770df8461008c565b6128c1610f808801357f1e8fe494f5a1274634fbccd830079e108d03405a1c7da1f7910a0e8925d46e617f0244dd8f11535c719a3948c2437fc3e724c3e991f2a022609e10662430649cb98461008c565b612911610fa08801357ecd8c25b013e701736b01722c3f1d3fe674625d6d8d325a410ccdec63288cb67f2fb44886bd8bb2906e1e1736d80009921626e5c0ae9eaadd82ac40a006da20c18461008c565b612962610fc08801357f017de55ea34e3f3e2a2777e96ea5158308c714bb3533b3d5ae4a3b3086b71c207f0762ea0d1f86b352e5b7eec16463bae3002425473fb86c465ac9ab0cc83641238461008c565b6129b3610fe08801357f20ef4912f044905828acd9ae0b80ef35fbc5d780d4ef48a27f59d7d1dbe495367f18498e3ae4d4c8fb5e5267bfad039485bea9d99b7f41f496e936eb4f22eed6228461008c565b612a046110008801357f1645001b1891d10ab9511ba678a62d2160d85a219501a3ee3bb95e8367e102e17f295c7ab77baf4de4d26103f20787e0bc389ab8bf3cf4eb80c2efd2ae58b90fc88461008c565b612a556110208801357f16dc0eaa33b01c0547cf812f1bb0cd2dbece7cf5322b355afc84665a1a685fdb7f0b83af9912a14aaebbf7012c5e34bab32808f9ed834653135554cf9f609dbb458461008c565b612aa66110408801357f22a531217583237cb3a3d0e204d1fcd2c72611f9a9abc803f5d3d0cef7edcdc17f1d7319832f40a7165a524c433696d4020a9e1ebac341aa7501090dbff5f9b1b78461008c565b612af76110608801357f185d6fa8b7774b099cb60643f3a59e4fec5a9adbf855dd3f0f4bc4641cdda2cd7f0264e27acb8ef1653b4f002ed9a184e7b2a98eb500d69d68667fc0e2d08a36f68461008c565b612b486110808801357f0fb9ec90a5f1f6982bb462e5d36eb2dea878b9baabaf30e04526d6ba6c4a1d147f0e24781d1f6e51af8fe147cdf2ce319c2ffdea8b53933a6735a97963de1a95f38461008c565b612b996110a08801357f0bab63ad1b5cb02c0ab0c86a51ff3a3b3d8695cb95e94624bcac9de5c180870a7f25d176d43f4863b41f1841d0f64690c58c21754d7e5e3d00005625c3da2c84618461008c565b612bea6110c08801357f04cfd74db329db5fc06ef6f5255bc5a2cefeafdb623032fce822affe04fc373c7f0149250588df225024bc92184148e39233007d684d68d713fd19039d534888b48461008c565b612c3b6110e08801357f09a3863bbba054cba3db6f415040e5689051ce1f365899f44218ce89289011497f1d3dd6846676e72e4e9a8aafc41466b647db42278a1b8ec9dd739163d5a24fd18461008c565b612c8c6111008801357f2e12f2dd1a1f0a7e14689691dee126c61f28f7669e8253ff9ea4d6cf0b9a1b557f26036d7e07580a06f15fa677a918adf3ecb8190bfc08470a0c4221625ef9de9d8461008c565b612cdd6111208801357f081b4d6068d355535d8cdefa9ff5476c8517ecb8074e208f3633486bce9077d17f046eb5c1ac6d1c45041d3ff6254a0515d2447d1ac029cfa65d68cf0044d3f0ee8461008c565b612d2e6111408801357f0ebe985b62b3c784959950a3c72654da16069d0214a322ca88fca21ec59730c17f27ee8a3d16431a4a0a0fbeb87b2293dce9429779b72d401ad5fe851883e022508461008c565b612d7f6111608801357f2cc7fe480a1fe8655bd7497e82cac537f10eceb107b69d5f447bedb2c87e48527f2bf9f91a49efb2c6f4e3aa162a2c8e6de6995b386658cd0e69266922a32e243d8461008c565b612dd06111808801357f01a2c18e932f65cd4f357d21f130f00ea5cf55ad8e764e300e41edc27d328cd17f23659ae662abff123b00724fccc48814b6a206da86ee9e79ad2498b27ad3de6c8461008c565b612e216111a08801357f2399983c265e5c88bdbc0229f8364a6cfe93105b831967476cb46653bc5e2ce47f054a23deb85bbd6a04d164d12c64d1b8a4012ba58041f52e79781747e178261a8461008c565b612e726111c08801357f1cce49bd3755dae6a01b0adcbbbf78cb758f5ddf1a0b2356033e05b82aaa69f87f292c00792f750d2ace0a46e8e29e35d73a08eae3ad88393d4ad75f05992188918461008c565b612ec36111e08801357f0dab86db52d30b7da36febea8de879dfe3d95ee14a41e4a74021bc84dc52fb467f1de070ea46728b63e4f179f02975b96edad3356fe4fd4d192deeb3335335d4a38461008c565b612f146112008801357f2950109cb1791d5311d480ed7542635ca459393bd17afeee071c4a8bcc0aebca7f0c34c18e4f9a9269130890503ecf43bc4a19645702b9e2b04240505aa95d36f88461008c565b612f656112208801357f304ad4cc27fbcf592dc79894b275ff43cef24fc2a494e23920d4f722edf8e41d7f0dd1a4ff5b0f31c5d876ba1b4f297c47618e7f64231fcf4f60fa03eeebeef1418461008c565b612fb66112408801357f1dc0c2da2ef515213f51bb555430c0b591eb9f3b27da3df5172efd4c3f82fd677f1332599a3f68aeb71dcebf206a854b35bbe74de16076fda010b5390379ed471b8461008c565b6130076112608801357f1018dec46441b33d8c64a33eb580bccd167123d6c1589919f19a5921b118b4a27f14327f36af511b5133392056520fc639d2fbeef018f6c34d57dd929b2829d5af8461008c565b6130586112808801357f21b8b3b7d420075dac6202576befc293e5a19e1bc1bca5cf4c770dcce4cfff0c7f15ce878bd83f12ac1414901f3ad3fc956e77bdf277fdd6e10bc7efa4b77540748461008c565b6130a96112a08801357f2ecc1f7e3d693b3d8942943d33c0e082d45722b597833741ba1de3790aa210237f2e6ab285f17657748b58df49eb69da8f20b68f405c4b197678568c17965ef4508461008c565b6130fa6112c08801357f249a287be96095cf3000df5f204ba062dba782694655dfc443f1a61eb05c13e17f0652e5ec5af72de520ae10113e4f823eadda0981619e0fa455266cd73eac824c8461008c565b61314b6112e08801357f254695962efc4f16e5da4ff1812c6c0a6ce5867111869af1e36ceab42a3e34ee7f2d03ac054cd6cb840ae365bd41c9d01516f9ce66608bda43d17fc76fc3f41d608461008c565b61319c6113008801357f022f762f6c98abc62277724e6041fd74d723d382326e3173842a99b2a5d9d8fb7f1509d843e62abbbffa6cc548e90d62b5c517041ae579c48dff46b1abe5e1dd7f8461008c565b6131ed6113208801357f1b4b73d8aefc2e24a6b035a41d7f523f9de66ad1e747e02a53251b6671e3fa6b7f1d8cd3e4718936eb96e8166cd45bea3367d411ada9c7f564e12882759f6f4f6d8461008c565b61323e6113408801357f08410c2dbe6b740e710fae95a26c51302514dc266d083d6af8427a1195ef07f97f11c6dbf4cfbfb062c983ce3dc0a81961498d0ff74e17a2787e8d91848f4d7a8a8461008c565b61328f6113608801357f2fb17c1ea541ea9c296035fbc6fd7095e9d2c1ae6337fe7d1c4b586687c1f16e7f0394e18b9d10e15c1f786b21ef9a384425a09cc7af29db8e30f89a039afc41da8461008c565b6132e06113808801357f0da102ec31d0c6cc68385f402282f1a1bfe139260c99f5b11c6918d8bb0018507f1f1463e4df7c6740b8911c530a583d58bc7abb4d200a2787d965ce6487308d6b8461008c565b6133306113a08801357f0730f8c1dbfcdaafcddd72fae6b7f08f25938ba24bcdaab08ac011a01d7cb4277ebd0ec7c00163096004f9fa0c45b244cb2284cb3823546b7fd5642c7c5523e08461008c565b6133806113c08801357e092909f2b8eae1816b7fc7121d4ebcd7f044b640eb1dfb7fb267fedd5970d77f2d345c966e19d54daf0c1e18f5a2f5ea8091b41866c554fa687e9f1da14d6ae08461008c565b6133d16113e08801357f0b86e53324e8c6100b0cbc57fc9eef65788491665d48ac576ca6a5ee3b95f5f07f0b570e1e4c8242db8d538cef5b4472dbd8c27ba85aa6855b0eb46fb2feb540ba8461008c565b6134226114008801357f26ea2e365421fa9cb37417f0888e682dfbcd90e006fb82de622d415ece2297187f13385fe3a66568f32b643922807388a352cabd6ec54a78b4d87fec109de13ba78461008c565b6134726114208801357eed318089f314640ef79ab3d08679afff734934ef972c39dbc5e4f82e0e29757f227f2e992b67671cdce1a6b5c12c34174045f9014fe3ae2fcffe599fe732cbee8461008c565b50823581527f30644e72e131a029b85045b68181585d97816a916871ca8d3c208c16d87cfd4760208401357f30644e72e131a029b85045b68181585d97816a916871ca8d3c208c16d87cfd4703066020820152833560408201526020840135606082015260408401356080820152606084013560a08201527f040002126baccdb8bb29e9a01df582c4f55d5d46af963215d7863dc5aecccd8260c08201527f0c365b17884e9dff01db4c6ac365396388cb00533d4ae75b4898f226566f65ed60e08201527f057d2ab12116b9e473fe7ff5cf1f69748a1bd33213c0c3961c180355e21a2e536101008201527f16c8ee76cacc1947056a0c3a3934cd55535fcc2bb99964c0faa0e4ba90d416506101208201527f2f76252e73145fa893c51d6f2e19bf220d1bb505c59ddbca7476e33e005c32976101408201527f02a6d392977fe77871c2c325062a102ad5783358c6088f4c77783fa8603c487a6101608201525f87015161018082015260205f018701516101a08201527f198e9393920d483a7260bfb731fb5d25f1aa493335a9e71297e485b7aef312c26101c08201527f1800deef121f1e76426a00665e5c4479674322d4f75edadd46debd5cd992f6ed6101e08201527f090689d0585ff075ec9e99ad690c3395bc4b313370b38ef355acdadcd122975b6102008201527f12c85ea5db8c6deb4aab71808dcb408fe3d1e7690c43d37b4ce6cc0166fa7daa610220820152843561024082015260208501356102608201527f198e9393920d483a7260bfb731fb5d25f1aa493335a9e71297e485b7aef312c26102808201527f1800deef121f1e76426a00665e5c4479674322d4f75edadd46debd5cd992f6ed6102a08201527f090689d0585ff075ec9e99ad690c3395bc4b313370b38ef355acdadcd122975b6102c08201527f12c85ea5db8c6deb4aab71808dcb408fe3d1e7690c43d37b4ce6cc0166fa7daa6102e08201526020816103008360086107d05a03fa9051169695505050505050565b60405161038081016040526137675f84013561005a565b613774602084013561005a565b613781604084013561005a565b61378e606084013561005a565b61379b608084013561005a565b6137a860a084013561005a565b6137b560c084013561005a565b6137c260e084013561005a565b6137d061010084013561005a565b6137de61012084013561005a565b6137ec61014084013561005a565b6137fa61016084013561005a565b61380861018084013561005a565b6138166101a084013561005a565b6138246101c084013561005a565b6138326101e084013561005a565b61384061020084013561005a565b61384e61022084013561005a565b61385c61024084013561005a565b61386a61026084013561005a565b61387861028084013561005a565b6138866102a084013561005a565b6138946102c084013561005a565b6138a26102e084013561005a565b6138b061030084013561005a565b6138be61032084013561005a565b6138cc61034084013561005a565b6138da61036084013561005a565b6138e861038084013561005a565b6138f66103a084013561005a565b6139046103c084013561005a565b6139126103e084013561005a565b61392061040084013561005a565b61392e61042084013561005a565b61393c61044084013561005a565b61394a61046084013561005a565b61395861048084013561005a565b6139666104a084013561005a565b6139746104c084013561005a565b6139826104e084013561005a565b61399061050084013561005a565b61399e61052084013561005a565b6139ac61054084013561005a565b6139ba61056084013561005a565b6139c861058084013561005a565b6139d66105a084013561005a565b6139e46105c084013561005a565b6139f26105e084013561005a565b613a0061060084013561005a565b613a0e61062084013561005a565b613a1c61064084013561005a565b613a2a61066084013561005a565b613a3861068084013561005a565b613a466106a084013561005a565b613a546106c084013561005a565b613a626106e084013561005a565b613a7061070084013561005a565b613a7e61072084013561005a565b613a8c61074084013561005a565b613a9a61076084013561005a565b613aa861078084013561005a565b613ab66107a084013561005a565b613ac46107c084013561005a565b613ad26107e084013561005a565b613ae061080084013561005a565b613aee61082084013561005a565b613afc61084084013561005a565b613b0a61086084013561005a565b613b1861088084013561005a565b613b266108a084013561005a565b613b346108c084013561005a565b613b426108e084013561005a565b613b5061090084013561005a565b613b5e61092084013561005a565b613b6c61094084013561005a565b613b7a61096084013561005a565b613b8861098084013561005a565b613b966109a084013561005a565b613ba46109c084013561005a565b613bb26109e084013561005a565b613bc0610a0084013561005a565b613bce610a2084013561005a565b613bdc610a4084013561005a565b613bea610a6084013561005a565b613bf8610a8084013561005a565b613c06610aa084013561005a565b613c14610ac084013561005a565b613c22610ae084013561005a565b613c30610b0084013561005a565b613c3e610b2084013561005a565b613c4c610b4084013561005a565b613c5a610b6084013561005a565b613c68610b8084013561005a565b613c76610ba084013561005a565b613c84610bc084013561005a565b613c92610be084013561005a565b613ca0610c0084013561005a565b613cae610c2084013561005a565b613cbc610c4084013561005a565b613cca610c6084013561005a565b613cd8610c8084013561005a565b613ce6610ca084013561005a565b613cf4610cc084013561005a565b613d02610ce084013561005a565b613d10610d0084013561005a565b613d1e610d2084013561005a565b613d2c610d4084013561005a565b613d3a610d6084013561005a565b613d48610d8084013561005a565b613d56610da084013561005a565b613d64610dc084013561005a565b613d72610de084013561005a565b613d80610e0084013561005a565b613d8e610e2084013561005a565b613d9c610e4084013561005a565b613daa610e6084013561005a565b613db8610e8084013561005a565b613dc6610ea084013561005a565b613dd4610ec084013561005a565b613de2610ee084013561005a565b613df0610f0084013561005a565b613dfe610f2084013561005a565b613e0c610f4084013561005a565b613e1a610f6084013561005a565b613e28610f8084013561005a565b613e36610fa084013561005a565b613e44610fc084013561005a565b613e52610fe084013561005a565b613e6061100084013561005a565b613e6e61102084013561005a565b613e7c61104084013561005a565b613e8a61106084013561005a565b613e9861108084013561005a565b613ea66110a084013561005a565b613eb46110c084013561005a565b613ec26110e084013561005a565b613ed061110084013561005a565b613ede61112084013561005a565b613eec61114084013561005a565b613efa61116084013561005a565b613f0861118084013561005a565b613f166111a084013561005a565b613f246111c084013561005a565b613f326111e084013561005a565b613f4061120084013561005a565b613f4e61122084013561005a565b613f5c61124084013561005a565b613f6a61126084013561005a565b613f7861128084013561005a565b613f866112a084013561005a565b613f946112c084013561005a565b613fa26112e084013561005a565b613fb061130084013561005a565b613fbe61132084013561005a565b613fcc61134084013561005a565b613fda61136084013561005a565b613fe861138084013561005a565b613ff66113a084013561005a565b6140046113c084013561005a565b6140126113e084013561005a565b61402061140084013561005a565b61402e61142084013561005a565b61403b818486888a6100f2565b9050805f5260205ff35b8060408101831015614055575f80fd5b92915050565b5f805f80611540808688031215614070575f80fd5b61407a8787614045565b945060c086018781111561408c575f80fd5b60408701945061409c8882614045565b9350508681870111156140ad575f80fd5b5092959194509261010001915056fea2646970667358221220aebe1c70d49cb07627ecc828c28e92a04a8354050038ce1ace11e4105834cf6064736f6c63430008150033",
  "immutableReferences": {},
  "source": "// SPDX-License-Identifier: GPL-3.0\n/*\n    Copyright 2021 0KIMS association.\n\n    This file is generated with [snarkJS](https://github.com/iden3/snarkjs).\n\n    snarkJS is a free software: you can redistribute it and/or modify it\n    under the terms of the GNU General Public License as published by\n    the Free Software Foundation, either version 3 of the License, or\n    (at your option) any later version.\n\n    snarkJS is distributed in the hope that it will be useful, but WITHOUT\n    ANY WARRANTY; without even the implied warranty of MERCHANTABILITY\n    or FITNESS FOR A PARTICULAR PURPOSE. See the GNU General Public\n    License for more details.\n\n    You should have received a copy of the GNU General Public License\n    along with snarkJS. If not, see <https://www.gnu.org/licenses/>.\n*/\n\npragma solidity >=0.7.0 <0.9.0;\n\ncontract Groth16Verifier {\n    // Scalar field size\n    uint256 constant r    = 21888242871839275222246405745257275088548364400416034343698204186575808495617;\n    // Base field size\n    uint256 constant q   = 21888242871839275222246405745257275088696311157297823662689037894645226208583;\n\n    // Verification Key data\n    uint256 constant alphax  = 1809265694444301629707852142679553563224128200588615483182147195422636821890;\n    uint256 constant alphay  = 5523792617848373595817716473642902138909421930709287562560382766870860621293;\n    uint256 constant betax1  = 2482714774755409890096054317475100346394241810786491226707181584909925494355;\n    uint256 constant betax2  = 10305897900048824556816716176330493254307347486780257647014622142422855194192;\n    uint256 constant betay1  = 21467448453949042326187918300327457944397318177053064226798795326604093174423;\n    uint256 constant betay2  = 1199382530505903558786956475345240298818108775862714539341944256628979943546;\n    uint256 constant gammax1 = 11559732032986387107991004021392285783925812861821192530917403151452391805634;\n    uint256 constant gammax2 = 10857046999023057135944570762232829481370756359578518086990519993285655852781;\n    uint256 constant gammay1 = 4082367875863433681332203403145435568316851327593401208105741076214120093531;\n    uint256 constant gammay2 = 8495653923123431417604973247489272438418190587263600148770280649306958101930;\n    uint256 constant deltax1 = 11559732032986387107991004021392285783925812861821192530917403151452391805634;\n    uint256 constant deltax2 = 10857046999023057135944570762232829481370756359578518086990519993285655852781;\n    uint256 constant deltay1 = 4082367875863433681332203403145435568316851327593401208105741076214120093531;\n    uint256 constant deltay2 = 8495653923123431417604973247489272438418190587263600148770280649306958101930;\n\n    \n    uint256 constant IC0x = 6586847537472439931600695400705868679445997463744668469742950737146698784492;\n    uint256 constant IC0y = 12974542174910988966905293556498230571777063595409019186716061487828260058250;\n    \n    uint256 constant IC1x = 15792504200724384851226723466744892892336160682140211929738045846789064174124;\n    uint256 constant IC1y = 1970526900953630213548023375450807776615206470625918845726679884571670240269;\n    \n    uint256 constant IC2x = 7704209031137167882892758659380619014129777260136723643300742369180894822355;\n    uint256 constant IC2y = 3339768807815550114739744365307542683852012848529891571488052561269484861804;\n    \n    uint256 constant IC3x = 16609927677282975428946174397051843916319788201321937083941316302344790888460;\n    uint256 constant IC3y = 1434890796636835586662908875230338285198091681496281458979954364676231714326;\n    \n    uint256 constant IC4x = 5944496041046162892079417573319816997411072475958943264659112378310405884350;\n    uint256 constant IC4y = 11986394427413731306528300280722865442033709881387633419972318255583364631601;\n    \n    uint256 constant IC5x = 20015533747470427415931969770378212387433404484565621015187517819439379956279;\n    uint256 constant IC5y = 14053945286378881200596577494092621645256076112203422904148095239251295216923;\n    \n    uint256 constant IC6x = 11647395770269793536931592139753152312938407561076079046192046100960456461017;\n    uint256 constant IC6y = 15927182307227694202329396361152403982704648305225918470444488043888899563461;\n    \n    uint256 constant IC7x = 168240113726963513611597884278333044989472338404659202233641168651849126762;\n    uint256 constant IC7y = 9083425347542543929960387962773042634305564156741860055076295116724425073329;\n    \n    uint256 constant IC8x = 5560915855488571725022852596896900901761391122895857121935775202775050772983;\n    uint256 constant IC8y = 8882326511824677997869937572553805341066760481851446477790057204383430991981;\n    \n    uint256 constant IC9x = 1954736796909606754968261950112837410614467951878656114422882151381663909762;\n    uint256 constant IC9y = 20209631604805308595648984437423415691051887547312376984811012408716112013331;\n    \n    uint256 constant IC10x = 1782087023175682584567401657761041404735751845367954256048141485541125435319;\n    uint256 constant IC10y = 5618031213102363504255348019791734979105086746260159915693154318332706219282;\n    \n    uint256 constant IC11x = 21826829659213609581338994230786249155934909681255225113975568050083070772020;\n    uint256 constant IC11y = 4823629157209075405373000964187597103986542118975402321001730937526753181961;\n    \n    uint256 constant IC12x = 19796914165971681289406018881332032134793176095099400569104505333525192211956;\n    uint256 constant IC12y = 1871968992218518464610965851485883495592216745109682612917765182930927306289;\n    \n    uint256 constant IC13x = 10652663330108721512559230170201748014134700089277210648778239647076068566813;\n    uint256 constant IC13y = 10019787424714462242245733160413183869785793509680108109679209221488148599165;\n    \n    uint256 constant IC14x = 7560081733193256734627183535572962006326349696397415464428448934078795999535;\n    uint256 constant IC14y = 981956066911452830900511587937819125081206742230923394487001967851710176531;\n    \n    uint256 constant IC15x = 13978604681049882413233282583330812349535016172498810590921640852571297572014;\n    uint256 constant IC15y = 6751799836498129349084158261224013358876665894232878915927044393052931324430;\n    \n    uint256 constant IC16x = 19392576905548878772492620012336186632441129582868120427615894920307063714293;\n    uint256 constant IC16y = 12561784620273408777878715108357979464386095601320561062686543830355818006297;\n    \n    uint256 constant IC17x = 14521270005442668000500741765580745068204789421844371232511944783658915418943;\n    uint256 constant IC17y = 15385222599448516747148831583260016788106878195767504720853326240431935518663;\n    \n    uint256 constant IC18x = 8484379729918629001007680031826985400995981108123809693178007674579560140352;\n    uint256 constant IC18y = 12830794765490515829677785680005962261635846410225185301540258270319115889280;\n    \n    uint256 constant IC19x = 228350220696893947223096709460310576379377822874798072529648321135128115466;\n    uint256 constant IC19y = 6448079392206282615159604123761514016843717209777726806656956053823565480237;\n    \n    uint256 constant IC20x = 13190289595858712460950249708850252216523570742160462402731914865906056500751;\n    uint256 constant IC20y = 7399291144628281359175964558173313763532006637939445483245245516542961857941;\n    \n    uint256 constant IC21x = 4918526227087925906154713369815996918089624350090819080614322845333699825422;\n    uint256 constant IC21y = 11679780227734418656454432602118263374862636859666108808089123963277238117782;\n    \n    uint256 constant IC22x = 20463985858565639130075426905628795966407474772678682427583276559571657646349;\n    uint256 constant IC22y = 5165151919618037711897984522254041818269785004626641487686672350996424152814;\n    \n    uint256 constant IC23x = 18075172548888108616390808292442228048683756936131845832404781811478290720567;\n    uint256 constant IC23y = 8853818060606435937217008714965020631767561620998532889083568279210918396934;\n    \n    uint256 constant IC24x = 17264121310122598996147824825621542173680963176809133316851304124221498318692;\n    uint256 constant IC24y = 7837750772755182862813775434543040039484263041619298036082535937917646149872;\n    \n    uint256 constant IC25x = 19180435012498996295518855195729233055068309516270064363808221354392722623541;\n    uint256 constant IC25y = 17038226973944693690344467834711968272580304028073780712495998386652101755907;\n    \n    uint256 constant IC26x = 7576898093839631617682477024741455358527129108888333561034185074578623223948;\n    uint256 constant IC26y = 4572672931968158112324061426882017385934742768639966982265542076846294886083;\n    \n    uint256 constant IC27x = 18313257780290678208029554824958791184271197266172976082198294719507093713054;\n    uint256 constant IC27y = 2326627964165553277362982862802031139266051100755732274511923129721101766336;\n    \n    uint256 constant IC28x = 4847600372196578077730842738983338293303183187698380474399652397761716875709;\n    uint256 constant IC28y = 20836820020833993131702189673090511890263384971478396663538520907736939638353;\n    \n    uint256 constant IC29x = 842132400454796686942902729466526086979677163555743432273916040360201875497;\n    uint256 constant IC29y = 4583626893408528299653676655503820975221063924762642746797184874176645351863;\n    \n    uint256 constant IC30x = 14394601109272176437779950119415864488111479799936930578918157115260460008995;\n    uint256 constant IC30y = 13140357737380470029984944979243769009346579330018325134530921123260559603716;\n    \n    uint256 constant IC31x = 8630807059079231304183682719793039467430323529959780969890751603143033202033;\n    uint256 constant IC31y = 15581007498773046081684226929623656487397931671010555539089237077762138915860;\n    \n    uint256 constant IC32x = 5552593336590268546263274579890684650835055601312278327821812228753816387750;\n    uint256 constant IC32y = 14613509530175110315022390590788410296372909149474451073031935566201535179853;\n    \n    uint256 constant IC33x = 5011455036796214780867664539583286513258979471861870425059127276232472850822;\n    uint256 constant IC33y = 15323317449384953912836310412482870796837901270634793147491739308550102800638;\n    \n    uint256 constant IC34x = 17989167779517226419262929404562933647023258382652674162443375797482943436366;\n    uint256 constant IC34y = 3503763924278192795074038794445251338387756942477165309284054201469918258184;\n    \n    uint256 constant IC35x = 2445498268297765053479709084204268244802458809855922688451988169204037194018;\n    uint256 constant IC35y = 3231203759384430330993150782398118448029993764599009543691689437954318232878;\n    \n    uint256 constant IC36x = 8874951749287312623204120501742632368079374054996184113255990813102084536440;\n    uint256 constant IC36y = 19536470589074173059052859772968983814243834794404472053637095665855810743355;\n    \n    uint256 constant IC37x = 2633415760227516623836556358434396995073972436228418948418940398601657514531;\n    uint256 constant IC37y = 12613471865027845660240139419808412283916674547862020466573689392511967236240;\n    \n    uint256 constant IC38x = 12786635630212433820330947312342937269331592698900490914712616542359700875337;\n    uint256 constant IC38y = 17152315242619701337968359859315490264366987487959072017854826914500446898342;\n    \n    uint256 constant IC39x = 16762894095528283950763667404658322485896058110777627733736473255291978013164;\n    uint256 constant IC39y = 667071096837420538321626205905387996051862667209527644502878499443304268167;\n    \n    uint256 constant IC40x = 16855399658265175342426684363034489580244491857753260060701646791263812628163;\n    uint256 constant IC40y = 12587522574337968816668122381910757342494195958319054644500666445295284633184;\n    \n    uint256 constant IC41x = 16769927891388222776447281588754768591283951887198062734236971596934289123818;\n    uint256 constant IC41y = 5379378572908153887787088910630920569141938501476349339719237946985625069654;\n    \n    uint256 constant IC42x = 11568761511689309625435451029081147962159238523933316495582000478401136633601;\n    uint256 constant IC42y = 1378853566509956372102672617552787247509649584412233071693205504210367155775;\n    \n    uint256 constant IC43x = 3998566125004102944711307924111290822103623914493727852209654738144302234489;\n    uint256 constant IC43y = 21752687683317749187515547823607649291657382913664767191522052446887425912888;\n    \n    uint256 constant IC44x = 20255728711916490813367369734480307473887878144412840787664711552868727337542;\n    uint256 constant IC44y = 7641117048967573271675582143134943480773620624777793417935029216033829901374;\n    \n    uint256 constant IC45x = 14669674008860495125193506691883280394600657524727867991730469877406606428738;\n    uint256 constant IC45y = 13886033141695521523287009111875574887159947082144472755828334822607434716617;\n    \n    uint256 constant IC46x = 17767476229547524072693740853971253040713082665054073505846742379838340103426;\n    uint256 constant IC46y = 1726415182332554050084274332651342897271435488087315036839498355538332066098;\n    \n    uint256 constant IC47x = 20246337545544476847746718348454070671763275247468483063191926105089404331531;\n    uint256 constant IC47y = 21695820177170652029826589981975689811104088093840392993781532442121032621164;\n    \n    uint256 constant IC48x = 8949849189625544962533971985324061786890026266671851805860895790501663010197;\n    uint256 constant IC48y = 4754718477843892725030989483394325060239135627142167198400394175747941576341;\n    \n    uint256 constant IC49x = 15932839438597277882376473839389050401630532254073732029311700252543942556741;\n    uint256 constant IC49y = 12959454773997224157095540309084273709613618944454390037721642199580002125258;\n    \n    uint256 constant IC50x = 3132885496994796687184636627833591658636967025848101004972885903485626550206;\n    uint256 constant IC50y = 10414546521910999677248588584790459711786532626585593485530406533747652291923;\n    \n    uint256 constant IC51x = 6051972714525267147113187766681255928786606033585901686794145072746598500519;\n    uint256 constant IC51y = 13689690761683542926452498430223001259734060438591651935024393748882306672591;\n    \n    uint256 constant IC52x = 5996537946306574015743827710511214059365499992675106419839368818301696526782;\n    uint256 constant IC52y = 716528025488871526948133633798750244199435311648264490319570557462396184930;\n    \n    uint256 constant IC53x = 19207934540258449061589586684661242537024809963823036162956057108197633344257;\n    uint256 constant IC53y = 17198623065081266243387312063797191956115199013775666545599415308342075819290;\n    \n    uint256 constant IC54x = 18530473153712511226739651707549799269315693417656622074052963947314061359064;\n    uint256 constant IC54y = 16801306571460963931960453185466318452537431892635698869902514675216623468614;\n    \n    uint256 constant IC55x = 21227845480452469875760457032687028675610715506569241925535008171017657809872;\n    uint256 constant IC55y = 7858448466675161342459448250171660041602833293593829435725016885638273355953;\n    \n    uint256 constant IC56x = 816089250493990945233478949724992186574564602292088928608948267271490269523;\n    uint256 constant IC56y = 6962441867286258605467254168781941917410547538965268094112313133054282145820;\n    \n    uint256 constant IC57x = 2484094964730364243546339435837715604340542877057953938971091186513498374311;\n    uint256 constant IC57y = 21109265315395314599417134718202256558001529752824152134821741007842270245854;\n    \n    uint256 constant IC58x = 11427516150092621833744471530097918860783906036041869374754097524381987158919;\n    uint256 constant IC58y = 20983848202622019267605147178358499961810997673170474663390782247500517733907;\n    \n    uint256 constant IC59x = 7393088715448727063305074266452020517138220383006197681764796163380513091387;\n    uint256 constant IC59y = 11793283381003838828753796832456167156970223396911981397429281581370310174889;\n    \n    uint256 constant IC60x = 4419093093833624262397217033769020249436778714874878384880020525039187285747;\n    uint256 constant IC60y = 2341353480901906904599365377370677674240912361334724246170620983507760265165;\n    \n    uint256 constant IC61x = 13273804017642998431747433133139027548493720421041561690912965529292819814978;\n    uint256 constant IC61y = 21659307785830181252650242134914652838984679140552094222633085931331046137987;\n    \n    uint256 constant IC62x = 14155303388922961539370531792851549315456052393644692687692694910822627258452;\n    uint256 constant IC62y = 16940864121695942516099386697455305172123395947860374555540695354407098717810;\n    \n    uint256 constant IC63x = 2987381073290751811780552302246271324716905738661183051921764760166394854095;\n    uint256 constant IC63y = 7015944884971295057950083037032340646481003112815377771907291314361252309657;\n    \n    uint256 constant IC64x = 11162791304468513742406409509820064217981813932071145940818945824370941846083;\n    uint256 constant IC64y = 4274006569069774380670570782037608862601512906209939960497074633657656892177;\n    \n    uint256 constant IC65x = 21658962686383368779700922320880141094147282307523761836275833573869782740386;\n    uint256 constant IC65y = 16657336240950119756685522022942963913052896754714271831852925921930562218308;\n    \n    uint256 constant IC66x = 6174197751237858170777543906091127796749587451286311169777133195594165551184;\n    uint256 constant IC66y = 807442501777777331434560872583520144768903358926168957712641015544354062697;\n    \n    uint256 constant IC67x = 17725720986501474857321391034680791834452741386950466431614116161950508164632;\n    uint256 constant IC67y = 11876785809740598498056986546675357383777183169602837590552165653801587783930;\n    \n    uint256 constant IC68x = 9671018583076354809842566599226600345073820010027178160859074582574521317200;\n    uint256 constant IC68y = 12327004047203367569103399465542184197878779131071445882459647908773895221103;\n    \n    uint256 constant IC69x = 12779061374465339450137601361624731626022622231524167809234246898302141617541;\n    uint256 constant IC69y = 7489908528296941096695297233531369144802807962174918956742791643343701869943;\n    \n    uint256 constant IC70x = 1615495610270961101818371106614646870210234881339345440796488479552691000833;\n    uint256 constant IC70y = 20429505925875784578611105582241238745003404062764739539609580524983569285308;\n    \n    uint256 constant IC71x = 20704422725665795517083283166110477284943001321211256504241915127698621354565;\n    uint256 constant IC71y = 6548525558007341902733683604063714376850993941387835545787946973088239648641;\n    \n    uint256 constant IC72x = 11719125309479315523488008825767527237058856745513613317261170331739091446615;\n    uint256 constant IC72y = 7934272023917228311071418539861951240345165047842327920382002606658271046705;\n    \n    uint256 constant IC73x = 19660003394785065687851908435841048483776662317035981461889552650555105463103;\n    uint256 constant IC73y = 20242642914877066061274983834388242969565370655152670930543393405590002490705;\n    \n    uint256 constant IC74x = 15248734232719836997043379336224646470916766376115883133380263555624727751993;\n    uint256 constant IC74y = 12137414434286864271718611395364091337974973461117731536306325607700099410824;\n    \n    uint256 constant IC75x = 12236436306501602062964354462010551656768121108308010565618081296868320304928;\n    uint256 constant IC75y = 4922824144880242561783796302244611407909705522015550837718036540320624096433;\n    \n    uint256 constant IC76x = 21268151855107095386367340985142654749320114240307557832081522967713167175377;\n    uint256 constant IC76y = 4198986505304931043518222584207693008020826288773662318473700200093548968963;\n    \n    uint256 constant IC77x = 14296740422106332376334487269120254654789296214180716171483142499635311287574;\n    uint256 constant IC77y = 7534157662570585780266341182831851369897209013383829015757370095929448241019;\n    \n    uint256 constant IC78x = 9581677093869900710066260006267885690596785701513386944790952866060986935093;\n    uint256 constant IC78y = 16214782949414955716146487674634920091156864213147813640636667498660682669159;\n    \n    uint256 constant IC79x = 7273359383057627544288038904315089006667704027819150037762577323417777465466;\n    uint256 constant IC79y = 15986788741016864131848033768637735841306542397353489156664614465272728812545;\n    \n    uint256 constant IC80x = 17522806078393885088484457444642125913851911090277740079347229160468165691563;\n    uint256 constant IC80y = 3351529539083836123174855843210001756697904931394805058801502200637406051667;\n    \n    uint256 constant IC81x = 10930783923253110675436845189235867377723180443175686297202428650822654441004;\n    uint256 constant IC81y = 7718316973849878870494736138979363809721600760272480357384551231903184778625;\n    \n    uint256 constant IC82x = 5678856242144999150075591951100306115608817394225884096073893796129912836480;\n    uint256 constant IC82y = 21466102239813526373750447481168764908000244217631318946769294848231305460857;\n    \n    uint256 constant IC83x = 5948882592481200424883963614291657544920051299409104230325276148233994508096;\n    uint256 constant IC83y = 10720904609966649607859379964357568780791928797200515708448390081885454499226;\n    \n    uint256 constant IC84x = 14278557323558614748682223851751840481105046639968142428838063435189774234980;\n    uint256 constant IC84y = 16452315092347213272296625199108621307670248353077388422799148454655670743108;\n    \n    uint256 constant IC85x = 18766272098635383172183216924444574121537609425362517353718953163307768223286;\n    uint256 constant IC85y = 20556058675217633938584548710430366493403292599905131275061827774031149120704;\n    \n    uint256 constant IC86x = 5986106827376508724335246461502402723667640456188047292166562393333374044175;\n    uint256 constant IC86y = 11707090094729874706135262061638444567161371170251634817763986791486459937037;\n    \n    uint256 constant IC87x = 17361264375026981432681166549035135582469615183409206364986340347375262217950;\n    uint256 constant IC87y = 20472450180476861537465414743647241407025387387161948151647447827264480020677;\n    \n    uint256 constant IC88x = 5804274979643361943118043066701299185216598261257390838584680237153806961241;\n    uint256 constant IC88y = 4581670060201911162097661602312836422926198713867394627132550457344033005211;\n    \n    uint256 constant IC89x = 5358144776733189810145670579789766514523902424893781971948975374843917337482;\n    uint256 constant IC89y = 17487934109271859701989070299388260195816343495859338485537303117366262730891;\n    \n    uint256 constant IC90x = 21188123626997119759022930364585290327169744831410384995585633856061374177027;\n    uint256 constant IC90y = 18589840892498854554549624372448342901803080158088403647699755182748737364445;\n    \n    uint256 constant IC91x = 17072460537244673287075606136343187801337570228915848512308183162268554445647;\n    uint256 constant IC91y = 1739198918148213309399414066688917146988519562158339278778679115946583381662;\n    \n    uint256 constant IC92x = 11949866258263059865756850065527421830348583026008747541627879516210492517272;\n    uint256 constant IC92y = 20633127825790837524072051271258277738262741301963488586450450121956325816044;\n    \n    uint256 constant IC93x = 9190694411487156169142440966968882500610645339615780865463165151841684986472;\n    uint256 constant IC93y = 1678103657340705988441239231889479892769724244400894326155194046601047959047;\n    \n    uint256 constant IC94x = 8445544019957834991800950802908711093106937541371273078141581232254475764675;\n    uint256 constant IC94y = 5397914024939370408003903312062279440739903128439113325564942451277434151089;\n    \n    uint256 constant IC95x = 12795412616065459338619954193312993642628017569189474327037587748470576765755;\n    uint256 constant IC95y = 20617717387728220405342752871049250246254514243305848430542656010456412433310;\n    \n    uint256 constant IC96x = 13568173652842588525894362055536874609429643151029269285121306240255962599806;\n    uint256 constant IC96y = 8484374836922312975910754916297864500746928851083086006375938657775867400176;\n    \n    uint256 constant IC97x = 5350848269785377535857329868354664632459242547952487816449002161651400375771;\n    uint256 constant IC97y = 10794242042807708864523364781416113575906714036027862082644850508946922530825;\n    \n    uint256 constant IC98x = 16816840568159487005123966290669042388226413593696908945712149042918812185291;\n    uint256 constant IC98y = 10275118350478984146790823406395305304210306139822905587237844009104943351324;\n    \n    uint256 constant IC99x = 13474831325422664068506455592146836401343145087493860301293906646710929349081;\n    uint256 constant IC99y = 6994123047717815968385204667541477889829217058141812199503756383481763333157;\n    \n    uint256 constant IC100x = 20714610991668872527016989589990049990515560835196263258077730812892577516673;\n    uint256 constant IC100y = 10242396450174805175327088006353698642039161737077004500668239845641700302416;\n    \n    uint256 constant IC101x = 6915729098370923776424895058316380240911388009371912382283056047683240196496;\n    uint256 constant IC101y = 15520687634775350180509704969053783983902155180103077724720262712533176020684;\n    \n    uint256 constant IC102x = 21526642371325466111587438996448408912567104329097256033590879577490321649167;\n    uint256 constant IC102y = 21054380616751801912276607588977136763718267988115068613904558989648342937169;\n    \n    uint256 constant IC103x = 5180955089152022159615101765942824571845207056852796209958384464027465680571;\n    uint256 constant IC103y = 5952250176946935622868137475866477073529262706040269401357467928776017165865;\n    \n    uint256 constant IC104x = 5609869964385830660809135644271239674537599107115780941384058546239114017766;\n    uint256 constant IC104y = 3047234292204827951435118133540540000621142137174913003830775835493111168132;\n    \n    uint256 constant IC105x = 12982172562225192885115827310921226096337016797644086754738527062980621640357;\n    uint256 constant IC105y = 3326752317864853341444814777285314194955177860077534076691388556335330499564;\n    \n    uint256 constant IC106x = 2908638542694248530332747767777391681092298544919188400145294681906912790080;\n    uint256 constant IC106y = 9618240862654039746093218848410317339111938139142590520866081906222866737370;\n    \n    uint256 constant IC107x = 12379963446063660438253063179392013438274413248347226700412961000496578205198;\n    uint256 constant IC107y = 14910611838553182086657827248442601107050692547661135246376183475488568367050;\n    \n    uint256 constant IC108x = 7921970322530207677243893610146261854596817771082706602069752959153978953602;\n    uint256 constant IC108y = 15764674499707988925398472420345675673394115799055709199226940177282311660608;\n    \n    uint256 constant IC109x = 5924225872537950485507827107954865144043398526743201566112849974186432628285;\n    uint256 constant IC109y = 4375403059586624956031128977587593238911188689062314933968767972733232914560;\n    \n    uint256 constant IC110x = 21736573654478345016407935960643955177872763371678305724641952119237549195971;\n    uint256 constant IC110y = 16135413655219241154224018722257722713024179580979475061633207898531346871624;\n    \n    uint256 constant IC111x = 7542778817581671130938349114959295240787499293513876203769758450541231503284;\n    uint256 constant IC111y = 20860128630400001585558626129836836585277302944335832443223058389583556967816;\n    \n    uint256 constant IC112x = 20983741424536582750996231099953783886262972607262397803703198988293228443360;\n    uint256 constant IC112y = 10547814406526927618892030667500855597056690786187942872413359203077127372969;\n    \n    uint256 constant IC113x = 7084575207037091924867296002954865629508433773825289239320416502831271415801;\n    uint256 constant IC113y = 1113865570910910253187002909120685275825728008656836465412852021739839217490;\n    \n    uint256 constant IC114x = 9537200517567812791089552594225914601053419050518736023132724274637515360216;\n    uint256 constant IC114y = 15343185966038149572341931247948043727526860240524860265506958895109664169151;\n    \n    uint256 constant IC115x = 3547401269786797439325257928151372325148074744120420516056270308577292636539;\n    uint256 constant IC115y = 5374012823050420926282116816698104431237424858913870547331737618891408239225;\n    \n    uint256 constant IC116x = 21130556947460960517754305619148455656446928325186588943787156780644806341956;\n    uint256 constant IC116y = 16438764806701430944849521852373336735401783104935801379911878612845743209453;\n    \n    uint256 constant IC117x = 20096294283066962047958505304188551166276729395840602291398581500167344822950;\n    uint256 constant IC117y = 11391965920872883468458554993104045396314235896975626193361246740751988156058;\n    \n    uint256 constant IC118x = 4512826627575604136021913450155098595937673269695461443618539170694804712638;\n    uint256 constant IC118y = 7407147130993997919859864279515808166031007535315107967895494426652230110465;\n    \n    uint256 constant IC119x = 12403293437918615091741499364714325222084897785773488291506214877395517588382;\n    uint256 constant IC119y = 1080571710784154651828765395836690934545594626378385345808803658725281146834;\n    \n    uint256 constant IC120x = 6316602127179752592451003960907811008160803605879661577160742677077266528607;\n    uint256 constant IC120y = 16166957572877732129712765783963987349497279203619885121685734401660298186950;\n    \n    uint256 constant IC121x = 13091615456453245042599583737186188535862141513146377696120045286653395445852;\n    uint256 constant IC121y = 14411743049175416221779321657044387608490785576973185344282328443376497697163;\n    \n    uint256 constant IC122x = 19081844853706235178338530942373065355482059445840395755139416018353008378304;\n    uint256 constant IC122y = 1814333018909183094368320928684872310259315776343600952483864731758347423588;\n    \n    uint256 constant IC123x = 7829959667921685876576879406231494177811588393400812973437880982202226860038;\n    uint256 constant IC123y = 2964338406622077551683459036460746109515270403154725746946423422184035436927;\n    \n    uint256 constant IC124x = 20471875096946627771183690726106690090559089374963223632347189153354397216991;\n    uint256 constant IC124y = 1047215334885874959723658759712311322092525352613906448792500970682859623636;\n    \n    uint256 constant IC125x = 1026300440611078757620837144271945104015167947571743774897959286370445073593;\n    uint256 constant IC125y = 13823622201868281725677051900459553712908694308933085537878509563991274319457;\n    \n    uint256 constant IC126x = 21577236913404943101948479325236055187426459314449806254172395628732220055745;\n    uint256 constant IC126y = 363170908829296843177196305957700264474449970481864456952158425544818986166;\n    \n    uint256 constant IC127x = 3340956314875695654457488099457848735629960687191093898799393176046953447715;\n    uint256 constant IC127y = 674751783027058688991997791209328031464056342752719642691524036146197109792;\n    \n    uint256 constant IC128x = 10985469837484103539257500405728502229944378908968709612160202818608490796578;\n    uint256 constant IC128y = 14896791941212069532973644505716703484971197794635583540488596107717488448822;\n    \n    uint256 constant IC129x = 18708223681623609689159520988433140992446191042315735058932316256744091750344;\n    uint256 constant IC129y = 10072795846807609533636142595193370372803234244427455419296147440546596586209;\n    \n    uint256 constant IC130x = 5208110232346399860698737424511861537914125048227788112809765414500019583813;\n    uint256 constant IC130y = 10339690236166267683253333599394288782375867034915196354075936868634672521179;\n    \n    uint256 constant IC131x = 13320436101752196901860611481437947465697887653600809335642953712379010593207;\n    uint256 constant IC131y = 15670505705144208797741345335011287335433584972822080179802389956108124802497;\n    \n    uint256 constant IC132x = 1082873508869437797511189235322357862538633450552514937208075783971915052790;\n    uint256 constant IC132y = 11020595785459540614114966713273442962180234271323955490867007001183305704141;\n    \n    uint256 constant IC133x = 6396815369207883169168505174704798965847034859828499037903281819258273306099;\n    uint256 constant IC133y = 7113192147579225606159261943497978628854069389804018178613682531681044143380;\n    \n    uint256 constant IC134x = 17105666562361607091816476512024933474200742454802702453947841306392565417057;\n    uint256 constant IC134y = 5278260122333701252760779593818065028671281413382888582520618954839671473930;\n    \n    uint256 constant IC135x = 581548198140916716003096116095092937493209111798694938188006789017384814772;\n    uint256 constant IC135y = 2176474706990763602389692852941272096210120865415721547228243970503940519740;\n    \n    uint256 constant IC136x = 13226330823088147579462014596226950393320994424370675661686701750293977255889;\n    uint256 constant IC136y = 4359738153214952423895437298628565073191568923105009113230879699732473581897;\n    \n    uint256 constant IC137x = 17193944475436941398510996618908308077139519278561640169145894376422787112605;\n    uint256 constant IC137y = 20839870465511290644330768134633828269421595629275534406080922177046767606613;\n    \n    uint256 constant IC138x = 2004859008975763275531444691110694408115155881974016186693596225501968724206;\n    uint256 constant IC138y = 3666741693078146215714088291992154282198980448516594979008684188019729659857;\n    \n    uint256 constant IC139x = 18061664784061723274176935342679882567182268790653859896562999072577778885200;\n    uint256 constant IC139y = 6669132351668042861626395071231361271805442978130175324904241673680318836929;\n    \n    uint256 constant IC140x = 19891116651795640067366192787185274928711575731520364283172183200963050218557;\n    uint256 constant IC140y = 20255122889309113430931701382404358781235386213361273615164265874876509603922;\n    \n    uint256 constant IC141x = 16010470334073439388804598073895283157407994809738945815416174129683736288876;\n    uint256 constant IC141y = 739877953935127107284598206577267562311019826300335646437092363855425866961;\n    \n    uint256 constant IC142x = 2392558491355431431905243796331801095961401901307042363942047166778414999066;\n    uint256 constant IC142y = 16102327988407613727367071311198716314285645545231918423937823450681871052004;\n    \n    uint256 constant IC143x = 18622571329915547434644141760067032772901578184405241408216999761475994224785;\n    uint256 constant IC143y = 13029239184416536622741186930208296936919842111403136029969941969499400595960;\n    \n    uint256 constant IC144x = 13513625663062425297164517744040180600499250874744465215993744189957780919459;\n    uint256 constant IC144y = 6183128626620783557933644269775432698536602997691635675105579694378980670278;\n    \n    uint256 constant IC145x = 5520966104108288199609774239127371388796169608034699937182545266260509013752;\n    uint256 constant IC145y = 18686289209479520655026869958687396392222088106798257270052961004656295341002;\n    \n    uint256 constant IC146x = 6250476838898088315399955648667037706789448583361653167341569981597178851649;\n    uint256 constant IC146y = 21843232089055794762567544295249237134330535539139389962257149271171497780253;\n    \n    uint256 constant IC147x = 8682904890255369947217587069788814317508435051707695617020380923429525473051;\n    uint256 constant IC147y = 13457652066357012387606056364030224310969449470659880131530865456717626539367;\n    \n    uint256 constant IC148x = 9135477320990425817992886833892029967372515779596789354148363999115939009967;\n    uint256 constant IC148y = 7280947389283734348737141645280501641810960373012555217910950876161825617058;\n    \n    uint256 constant IC149x = 9863475821555746490009026385093686573385717283176895102717312006722692661364;\n    uint256 constant IC149y = 15252664231772710839204336843671501902994170846835151730227709237280201768716;\n    \n    uint256 constant IC150x = 20994908945648343267231688741134170837530487290089857687759266820422610383952;\n    uint256 constant IC150y = 21167045193602414318891023083074341640926584368652560765292054346561021415459;\n    \n    uint256 constant IC151x = 2860345422852044238978419408180266790718859474737529004862870437485601391180;\n    uint256 constant IC151y = 16555636407478269652730917125076591223175378144359047783699745524266429060065;\n    \n    uint256 constant IC152x = 20360565970704799640407398842979200216512989137972974946383028868906082377056;\n    uint256 constant IC152y = 16860287101261174435186696762108780702653283191513571591489686355864513819886;\n    \n    uint256 constant IC153x = 9515964051598339659778143006831789960047015165253474211375271153571461193087;\n    uint256 constant IC153y = 988483193834064186343263117160373868867508421110090064468147183733651921147;\n    \n    uint256 constant IC154x = 13365893625287447731381814291991662277570217958616266868264303479078249254765;\n    uint256 constant IC154y = 12345759984213012016825320813255084133108132345174769051156404650182833338987;\n    \n    uint256 constant IC155x = 8040672227297083277025876754498300055894991092310833773091120017123088104074;\n    uint256 constant IC155y = 3733431902084026756352767640948415425560470762122686815473774465509504255993;\n    \n    uint256 constant IC156x = 1619988568238588606207137441469267075043990696295002715278085175328007537114;\n    uint256 constant IC156y = 21572292456628340902424479909376212684745613498544197661673368593368596214126;\n    \n    uint256 constant IC157x = 14057724690668815706569389613064642824116304032030963517878350216658462739819;\n    uint256 constant IC157y = 6164549580298077940151685504213622857628537764074242130304170360499039377488;\n    \n    uint256 constant IC158x = 334036104941886991378583661047754663602893905566010183138400691529125798880;\n    uint256 constant IC158y = 3252715458723348064885539599458428118835426598668438885278816646839943345191;\n    \n    uint256 constant IC159x = 20446593249866347518859288887317295559522305234498244474409194830813572459232;\n    uint256 constant IC159y = 16184863384389108888521546623324752952047503892906815015801829550720643287;\n    \n    uint256 constant IC160x = 5129254470356225292177329590552601533305063029515408807162388497537504198842;\n    uint256 constant IC160y = 5213780719853928874890698486725027049141296237248179050776154674690621044208;\n    \n    uint256 constant IC161x = 8693549362044047503313997879147805961160273189907643365855078872562691816359;\n    uint256 constant IC161y = 17601649404351547714273406492126226641304780653983255457241688697749664601880;\n    \n    uint256 constant IC162x = 15603348038832670434424595558304647030537530611825969055624550391452909358062;\n    uint256 constant IC162y = 419084405324424346306370873346414254269979181751732977818167323621464090997;\n    \n \n    // Memory data\n    uint16 constant pVk = 0;\n    uint16 constant pPairing = 128;\n\n    uint16 constant pLastMem = 896;\n\n    function verifyProof(uint[2] calldata _pA, uint[2][2] calldata _pB, uint[2] calldata _pC, uint[162] calldata _pubSignals) public view returns (bool) {\n        assembly {\n            function checkField(v) {\n                if iszero(lt(v, r)) {\n                    mstore(0, 0)\n                    return(0, 0x20)\n                }\n            }\n            \n            // G1 function to multiply a G1 value(x,y) to value in an address\n            function g1_mulAccC(pR, x, y, s) {\n                let success\n                let mIn := mload(0x40)\n                mstore(mIn, x)\n                mstore(add(mIn, 32), y)\n                mstore(add(mIn, 64), s)\n\n                success := staticcall(sub(gas(), 2000), 7, mIn, 96, mIn, 64)\n\n                if iszero(success) {\n                    mstore(0, 0)\n                    return(0, 0x20)\n                }\n\n                mstore(add(mIn, 64), mload(pR))\n                mstore(add(mIn, 96), mload(add(pR, 32)))\n\n                success := staticcall(sub(gas(), 2000), 6, mIn, 128, pR, 64)\n\n                if iszero(success) {\n                    mstore(0, 0)\n                    return(0, 0x20)\n                }\n            }\n\n            function checkPairing(pA, pB, pC, pubSignals, pMem) -> isOk {\n                let _pPairing := add(pMem, pPairing)\n                let _pVk := add(pMem, pVk)\n\n                mstore(_pVk, IC0x)\n                mstore(add(_pVk, 32), IC0y)\n\n                // Compute the linear combination vk_x\n                \n                g1_mulAccC(_pVk, IC1x, IC1y, calldataload(add(pubSignals, 0)))\n                \n                g1_mulAccC(_pVk, IC2x, IC2y, calldataload(add(pubSignals, 32)))\n                \n                g1_mulAccC(_pVk, IC3x, IC3y, calldataload(add(pubSignals, 64)))\n                \n                g1_mulAccC(_pVk, IC4x, IC4y, calldataload(add(pubSignals, 96)))\n                \n                g1_mulAccC(_pVk, IC5x, IC5y, calldataload(add(pubSignals, 128)))\n                \n                g1_mulAccC(_pVk, IC6x, IC6y, calldataload(add(pubSignals, 160)))\n                \n                g1_mulAccC(_pVk, IC7x, IC7y, calldataload(add(pubSignals, 192)))\n                \n                g1_mulAccC(_pVk, IC8x, IC8y, calldataload(add(pubSignals, 224)))\n                \n                g1_mulAccC(_pVk, IC9x, IC9y, calldataload(add(pubSignals, 256)))\n                \n                g1_mulAccC(_pVk, IC10x, IC10y, calldataload(add(pubSignals, 288)))\n                \n                g1_mulAccC(_pVk, IC11x, IC11y, calldataload(add(pubSignals, 320)))\n                \n                g1_mulAccC(_pVk, IC12x, IC12y, calldataload(add(pubSignals, 352)))\n                \n                g1_mulAccC(_pVk, IC13x, IC13y, calldataload(add(pubSignals, 384)))\n                \n                g1_mulAccC(_pVk, IC14x, IC14y, calldataload(add(pubSignals, 416)))\n                \n                g1_mulAccC(_pVk, IC15x, IC15y, calldataload(add(pubSignals, 448)))\n                \n                g1_mulAccC(_pVk, IC16x, IC16y, calldataload(add(pubSignals, 480)))\n                \n                g1_mulAccC(_pVk, IC17x, IC17y, calldataload(add(pubSignals, 512)))\n                \n                g1_mulAccC(_pVk, IC18x, IC18y, calldataload(add(pubSignals, 544)))\n                \n                g1_mulAccC(_pVk, IC19x, IC19y, calldataload(add(pubSignals, 576)))\n                \n                g1_mulAccC(_pVk, IC20x, IC20y, calldataload(add(pubSignals, 608)))\n                \n                g1_mulAccC(_pVk, IC21x, IC21y, calldataload(add(pubSignals, 640)))\n                \n                g1_mulAccC(_pVk, IC22x, IC22y, calldataload(add(pubSignals, 672)))\n                \n                g1_mulAccC(_pVk, IC23x, IC23y, calldataload(add(pubSignals, 704)))\n                \n                g1_mulAccC(_pVk, IC24x, IC24y, calldataload(add(pubSignals, 736)))\n                \n                g1_mulAccC(_pVk, IC25x, IC25y, calldataload(add(pubSignals, 768)))\n                \n                g1_mulAccC(_pVk, IC26x, IC26y, calldataload(add(pubSignals, 800)))\n                \n                g1_mulAccC(_pVk, IC27x, IC27y, calldataload(add(pubSignals, 832)))\n                \n                g1_mulAccC(_pVk, IC28x, IC28y, calldataload(add(pubSignals, 864)))\n                \n                g1_mulAccC(_pVk, IC29x, IC29y, calldataload(add(pubSignals, 896)))\n                \n                g1_mulAccC(_pVk, IC30x, IC30y, calldataload(add(pubSignals, 928)))\n                \n                g1_mulAccC(_pVk, IC31x, IC31y, calldataload(add(pubSignals, 960)))\n                \n                g1_mulAccC(_pVk, IC32x, IC32y, calldataload(add(pubSignals, 992)))\n                \n                g1_mulAccC(_pVk, IC33x, IC33y, calldataload(add(pubSignals, 1024)))\n                \n                g1_mulAccC(_pVk, IC34x, IC34y, calldataload(add(pubSignals, 1056)))\n                \n                g1_mulAccC(_pVk, IC35x, IC35y, calldataload(add(pubSignals, 1088)))\n                \n                g1_mulAccC(_pVk, IC36x, IC36y, calldataload(add(pubSignals, 1120)))\n                \n                g1_mulAccC(_pVk, IC37x, IC37y, calldataload(add(pubSignals, 1152)))\n                \n                g1_mulAccC(_pVk, IC38x, IC38y, calldataload(add(pubSignals, 1184)))\n                \n                g1_mulAccC(_pVk, IC39x, IC39y, calldataload(add(pubSignals, 1216)))\n                \n                g1_mulAccC(_pVk, IC40x, IC40y, calldataload(add(pubSignals, 1248)))\n                \n                g1_mulAccC(_pVk, IC41x, IC41y, calldataload(add(pubSignals, 1280)))\n                \n                g1_mulAccC(_pVk, IC42x, IC42y, calldataload(add(pubSignals, 1312)))\n                \n                g1_mulAccC(_pVk, IC43x, IC43y, calldataload(add(pubSignals, 1344)))\n                \n                g1_mulAccC(_pVk, IC44x, IC44y, calldataload(add(pubSignals, 1376)))\n                \n                g1_mulAccC(_pVk, IC45x, IC45y, calldataload(add(pubSignals, 1408)))\n                \n                g1_mulAccC(_pVk, IC46x, IC46y, calldataload(add(pubSignals, 1440)))\n                \n                g1_mulAccC(_pVk, IC47x, IC47y, calldataload(add(pubSignals, 1472)))\n                \n                g1_mulAccC(_pVk, IC48x, IC48y, calldataload(add(pubSignals, 1504)))\n                \n                g1_mulAccC(_pVk, IC49x, IC49y, calldataload(add(pubSignals, 1536)))\n                \n                g1_mulAccC(_pVk, IC50x, IC50y, calldataload(add(pubSignals, 1568)))\n                \n                g1_mulAccC(_pVk, IC51x, IC51y, calldataload(add(pubSignals, 1600)))\n                \n                g1_mulAccC(_pVk, IC52x, IC52y, calldataload(add(pubSignals, 1632)))\n                \n                g1_mulAccC(_pVk, IC53x, IC53y, calldataload(add(pubSignals, 1664)))\n                \n                g1_mulAccC(_pVk, IC54x, IC54y, calldataload(add(pubSignals, 1696)))\n                \n                g1_mulAccC(_pVk, IC55x, IC55y, calldataload(add(pubSignals, 1728)))\n                \n                g1_mulAccC(_pVk, IC56x, IC56y, calldataload(add(pubSignals, 1760)))\n                \n                g1_mulAccC(_pVk, IC57x, IC57y, calldataload(add(pubSignals, 1792)))\n                \n                g1_mulAccC(_pVk, IC58x, IC58y, calldataload(add(pubSignals, 1824)))\n                \n                g1_mulAccC(_pVk, IC59x, IC59y, calldataload(add(pubSignals, 1856)))\n                \n                g1_mulAccC(_pVk, IC60x, IC60y, calldataload(add(pubSignals, 1888)))\n                \n                g1_mulAccC(_pVk, IC61x, IC61y, calldataload(add(pubSignals, 1920)))\n                \n                g1_mulAccC(_pVk, IC62x, IC62y, calldataload(add(pubSignals, 1952)))\n                \n                g1_mulAccC(_pVk, IC63x, IC63y, calldataload(add(pubSignals, 1984)))\n                \n                g1_mulAccC(_pVk, IC64x, IC64y, calldataload(add(pubSignals, 2016)))\n                \n                g1_mulAccC(_pVk, IC65x, IC65y, calldataload(add(pubSignals, 2048)))\n                \n                g1_mulAccC(_pVk, IC66x, IC66y, calldataload(add(pubSignals, 2080)))\n                \n                g1_mulAccC(_pVk, IC67x, IC67y, calldataload(add(pubSignals, 2112)))\n                \n                g1_mulAccC(_pVk, IC68x, IC68y, calldataload(add(pubSignals, 2144)))\n                \n                g1_mulAccC(_pVk, IC69x, IC69y, calldataload(add(pubSignals, 2176)))\n                \n                g1_mulAccC(_pVk, IC70x, IC70y, calldataload(add(pubSignals, 2208)))\n                \n                g1_mulAccC(_pVk, IC71x, IC71y, calldataload(add(pubSignals, 2240)))\n                \n                g1_mulAccC(_pVk, IC72x, IC72y, calldataload(add(pubSignals, 2272)))\n                \n                g1_mulAccC(_pVk, IC73x, IC73y, calldataload(add(pubSignals, 2304)))\n                \n                g1_mulAccC(_pVk, IC74x, IC74y, calldataload(add(pubSignals, 2336)))\n                \n                g1_mulAccC(_pVk, IC75x, IC75y, calldataload(add(pubSignals, 2368)))\n                \n                g1_mulAccC(_pVk, IC76x, IC76y, calldataload(add(pubSignals, 2400)))\n                \n                g1_mulAccC(_pVk, IC77x, IC77y, calldataload(add(pubSignals, 2432)))\n                \n                g1_mulAccC(_pVk, IC78x, IC78y, calldataload(add(pubSignals, 2464)))\n                \n                g1_mulAccC(_pVk, IC79x, IC79y, calldataload(add(pubSignals, 2496)))\n                \n                g1_mulAccC(_pVk, IC80x, IC80y, calldataload(add(pubSignals, 2528)))\n                \n                g1_mulAccC(_pVk, IC81x, IC81y, calldataload(add(pubSignals, 2560)))\n                \n                g1_mulAccC(_pVk, IC82x, IC82y, calldataload(add(pubSignals, 2592)))\n                \n                g1_mulAccC(_pVk, IC83x, IC83y, calldataload(add(pubSignals, 2624)))\n                \n                g1_mulAccC(_pVk, IC84x, IC84y, calldataload(add(pubSignals, 2656)))\n                \n                g1_mulAccC(_pVk, IC85x, IC85y, calldataload(add(pubSignals, 2688)))\n                \n                g1_mulAccC(_pVk, IC86x, IC86y, calldataload(add(pubSignals, 2720)))\n                \n                g1_mulAccC(_pVk, IC87x, IC87y, calldataload(add(pubSignals, 2752)))\n                \n                g1_mulAccC(_pVk, IC88x, IC88y, calldataload(add(pubSignals, 2784)))\n                \n                g1_mulAccC(_pVk, IC89x, IC89y, calldataload(add(pubSignals, 2816)))\n                \n                g1_mulAccC(_pVk, IC90x, IC90y, calldataload(add(pubSignals, 2848)))\n                \n                g1_mulAccC(_pVk, IC91x, IC91y, calldataload(add(pubSignals, 2880)))\n                \n                g1_mulAccC(_pVk, IC92x, IC92y, calldataload(add(pubSignals, 2912)))\n                \n                g1_mulAccC(_pVk, IC93x, IC93y, calldataload(add(pubSignals, 2944)))\n                \n                g1_mulAccC(_pVk, IC94x, IC94y, calldataload(add(pubSignals, 2976)))\n                \n                g1_mulAccC(_pVk, IC95x, IC95y, calldataload(add(pubSignals, 3008)))\n                \n                g1_mulAccC(_pVk, IC96x, IC96y, calldataload(add(pubSignals, 3040)))\n                \n                g1_mulAccC(_pVk, IC97x, IC97y, calldataload(add(pubSignals, 3072)))\n                \n                g1_mulAccC(_pVk, IC98x, IC98y, calldataload(add(pubSignals, 3104)))\n                \n                g1_mulAccC(_pVk, IC99x, IC99y, calldataload(add(pubSignals, 3136)))\n                \n                g1_mulAccC(_pVk, IC100x, IC100y, calldataload(add(pubSignals, 3168)))\n                \n                g1_mulAccC(_pVk, IC101x, IC101y, calldataload(add(pubSignals, 3200)))\n                \n                g1_mulAccC(_pVk, IC102x, IC102y, calldataload(add(pubSignals, 3232)))\n                \n                g1_mulAccC(_pVk, IC103x, IC103y, calldataload(add(pubSignals, 3264)))\n                \n                g1_mulAccC(_pVk, IC104x, IC104y, calldataload(add(pubSignals, 3296)))\n                \n                g1_mulAccC(_pVk, IC105x, IC105y, calldataload(add(pubSignals, 3328)))\n                \n                g1_mulAccC(_pVk, IC106x, IC106y, calldataload(add(pubSignals, 3360)))\n                \n                g1_mulAccC(_pVk, IC107x, IC107y, calldataload(add(pubSignals, 3392)))\n                \n                g1_mulAccC(_pVk, IC108x, IC108y, calldataload(add(pubSignals, 3424)))\n                \n                g1_mulAccC(_pVk, IC109x, IC109y, calldataload(add(pubSignals, 3456)))\n                \n                g1_mulAccC(_pVk, IC110x, IC110y, calldataload(add(pubSignals, 3488)))\n                \n                g1_mulAccC(_pVk, IC111x, IC111y, calldataload(add(pubSignals, 3520)))\n                \n                g1_mulAccC(_pVk, IC112x, IC112y, calldataload(add(pubSignals, 3552)))\n                \n                g1_mulAccC(_pVk, IC113x, IC113y, calldataload(add(pubSignals, 3584)))\n                \n                g1_mulAccC(_pVk, IC114x, IC114y, calldataload(add(pubSignals, 3616)))\n                \n                g1_mulAccC(_pVk, IC115x, IC115y, calldataload(add(pubSignals, 3648)))\n                \n                g1_mulAccC(_pVk, IC116x, IC116y, calldataload(add(pubSignals, 3680)))\n                \n                g1_mulAccC(_pVk, IC117x, IC117y, calldataload(add(pubSignals, 3712)))\n                \n                g1_mulAccC(_pVk, IC118x, IC118y, calldataload(add(pubSignals, 3744)))\n                \n                g1_mulAccC(_pVk, IC119x, IC119y, calldataload(add(pubSignals, 3776)))\n                \n                g1_mulAccC(_pVk, IC120x, IC120y, calldataload(add(pubSignals, 3808)))\n                \n                g1_mulAccC(_pVk, IC121x, IC121y, calldataload(add(pubSignals, 3840)))\n                \n                g1_mulAccC(_pVk, IC122x, IC122y, calldataload(add(pubSignals, 3872)))\n                \n                g1_mulAccC(_pVk, IC123x, IC123y, calldataload(add(pubSignals, 3904)))\n                \n                g1_mulAccC(_pVk, IC124x, IC124y, calldataload(add(pubSignals, 3936)))\n                \n                g1_mulAccC(_pVk, IC125x, IC125y, calldataload(add(pubSignals, 3968)))\n                \n                g1_mulAccC(_pVk, IC126x, IC126y, calldataload(add(pubSignals, 4000)))\n                \n                g1_mulAccC(_pVk, IC127x, IC127y, calldataload(add(pubSignals, 4032)))\n                \n                g1_mulAccC(_pVk, IC128x, IC128y, calldataload(add(pubSignals, 4064)))\n                \n                g1_mulAccC(_pVk, IC129x, IC129y, calldataload(add(pubSignals, 4096)))\n                \n                g1_mulAccC(_pVk, IC130x, IC130y, calldataload(add(pubSignals, 4128)))\n                \n                g1_mulAccC(_pVk, IC131x, IC131y, calldataload(add(pubSignals, 4160)))\n                \n                g1_mulAccC(_pVk, IC132x, IC132y, calldataload(add(pubSignals, 4192)))\n                \n                g1_mulAccC(_pVk, IC133x, IC133y, calldataload(add(pubSignals, 4224)))\n                \n                g1_mulAccC(_pVk, IC134x, IC134y, calldataload(add(pubSignals, 4256)))\n                \n                g1_mulAccC(_pVk, IC135x, IC135y, calldataload(add(pubSignals, 4288)))\n                \n                g1_mulAccC(_pVk, IC136x, IC136y, calldataload(add(pubSignals, 4320)))\n                \n                g1_mulAccC(_pVk, IC137x, IC137y, calldataload(add(pubSignals, 4352)))\n                \n                g1_mulAccC(_pVk, IC138x, IC138y, calldataload(add(pubSignals, 4384)))\n                \n                g1_mulAccC(_pVk, IC139x, IC139y, calldataload(add(pubSignals, 4416)))\n                \n                g1_mulAccC(_pVk, IC140x, IC140y, calldataload(add(pubSignals, 4448)))\n                \n                g1_mulAccC(_pVk, IC141x, IC141y, calldataload(add(pubSignals, 4480)))\n                \n                g1_mulAccC(_pVk, IC142x, IC142y, calldataload(add(pubSignals, 4512)))\n                \n                g1_mulAccC(_pVk, IC143x, IC143y, calldataload(add(pubSignals, 4544)))\n                \n                g1_mulAccC(_pVk, IC144x, IC144y, calldataload(add(pubSignals, 4576)))\n                \n                g1_mulAccC(_pVk, IC145x, IC145y, calldataload(add(pubSignals, 4608)))\n                \n                g1_mulAccC(_pVk, IC146x, IC146y, calldataload(add(pubSignals, 4640)))\n                \n                g1_mulAccC(_pVk, IC147x, IC147y, calldataload(add(pubSignals, 4672)))\n                \n                g1_mulAccC(_pVk, IC148x, IC148y, calldataload(add(pubSignals, 4704)))\n                \n                g1_mulAccC(_pVk, IC149x, IC149y, calldataload(add(pubSignals, 4736)))\n                \n                g1_mulAccC(_pVk, IC150x, IC150y, calldataload(add(pubSignals, 4768)))\n                \n                g1_mulAccC(_pVk, IC151x, IC151y, calldataload(add(pubSignals, 4800)))\n                \n                g1_mulAccC(_pVk, IC152x, IC152y, calldataload(add(pubSignals, 4832)))\n                \n                g1_mulAccC(_pVk, IC153x, IC153y, calldataload(add(pubSignals, 4864)))\n                \n                g1_mulAccC(_pVk, IC154x, IC154y, calldataload(add(pubSignals, 4896)))\n                \n                g1_mulAccC(_pVk, IC155x, IC155y, calldataload(add(pubSignals, 4928)))\n                \n                g1_mulAccC(_pVk, IC156x, IC156y, calldataload(add(pubSignals, 4960)))\n                \n                g1_mulAccC(_pVk, IC157x, IC157y, calldataload(add(pubSignals, 4992)))\n                \n                g1_mulAccC(_pVk, IC158x, IC158y, calldataload(add(pubSignals, 5024)))\n                \n                g1_mulAccC(_pVk, IC159x, IC159y, calldataload(add(pubSignals, 5056)))\n                \n                g1_mulAccC(_pVk, IC160x, IC160y, calldataload(add(pubSignals, 5088)))\n                \n                g1_mulAccC(_pVk, IC161x, IC161y, calldataload(add(pubSignals, 5120)))\n                \n                g1_mulAccC(_pVk, IC162x, IC162y, calldataload(add(pubSignals, 5152)))\n                \n\n                // -A\n                mstore(_pPairing, calldataload(pA))\n                mstore(add(_pPairing, 32), mod(sub(q, calldataload(add(pA, 32))), q))\n\n                // B\n                mstore(add(_pPairing, 64), calldataload(pB))\n                mstore(add(_pPairing, 96), calldataload(add(pB, 32)))\n                mstore(add(_pPairing, 128), calldataload(add(pB, 64)))\n                mstore(add(_pPairing, 160), calldataload(add(pB, 96)))\n\n                // alpha1\n                mstore(add(_pPairing, 192), alphax)\n                mstore(add(_pPairing, 224), alphay)\n\n                // beta2\n                mstore(add(_pPairing, 256), betax1)\n                mstore(add(_pPairing, 288), betax2)\n                mstore(add(_pPairing, 320), betay1)\n                mstore(add(_pPairing, 352), betay2)\n\n                // vk_x\n                mstore(add(_pPairing, 384), mload(add(pMem, pVk)))\n                mstore(add(_pPairing, 416), mload(add(pMem, add(pVk, 32))))\n\n\n                // gamma2\n                mstore(add(_pPairing, 448), gammax1)\n                mstore(add(_pPairing, 480), gammax2)\n                mstore(add(_pPairing, 512), gammay1)\n                mstore(add(_pPairing, 544), gammay2)\n\n                // C\n                mstore(add(_pPairing, 576), calldataload(pC))\n                mstore(add(_pPairing, 608), calldataload(add(pC, 32)))\n\n                // delta2\n                mstore(add(_pPairing, 640), deltax1)\n                mstore(add(_pPairing, 672), deltax2)\n                mstore(add(_pPairing, 704), deltay1)\n                mstore(add(_pPairing, 736), deltay2)\n\n\n                let success := staticcall(sub(gas(), 2000), 8, _pPairing, 768, _pPairing, 0x20)\n\n                isOk := and(success, mload(_pPairing))\n            }\n\n            let pMem := mload(0x40)\n            mstore(0x40, add(pMem, pLastMem))\n\n            // Validate that all evaluations  F\n            \n            checkField(calldataload(add(_pubSignals, 0)))\n            \n            checkField(calldataload(add(_pubSignals, 32)))\n            \n            checkField(calldataload(add(_pubSignals, 64)))\n            \n            checkField(calldataload(add(_pubSignals, 96)))\n            \n            checkField(calldataload(add(_pubSignals, 128)))\n            \n            checkField(calldataload(add(_pubSignals, 160)))\n            \n            checkField(calldataload(add(_pubSignals, 192)))\n            \n            checkField(calldataload(add(_pubSignals, 224)))\n            \n            checkField(calldataload(add(_pubSignals, 256)))\n            \n            checkField(calldataload(add(_pubSignals, 288)))\n            \n            checkField(calldataload(add(_pubSignals, 320)))\n            \n            checkField(calldataload(add(_pubSignals, 352)))\n            \n            checkField(calldataload(add(_pubSignals, 384)))\n            \n            checkField(calldataload(add(_pubSignals, 416)))\n            \n            checkField(calldataload(add(_pubSignals, 448)))\n            \n            checkField(calldataload(add(_pubSignals, 480)))\n            \n            checkField(calldataload(add(_pubSignals, 512)))\n            \n            checkField(calldataload(add(_pubSignals, 544)))\n            \n            checkField(calldataload(add(_pubSignals, 576)))\n            \n            checkField(calldataload(add(_pubSignals, 608)))\n            \n            checkField(calldataload(add(_pubSignals, 640)))\n            \n            checkField(calldataload(add(_pubSignals, 672)))\n            \n            checkField(calldataload(add(_pubSignals, 704)))\n            \n            checkField(calldataload(add(_pubSignals, 736)))\n            \n            checkField(calldataload(add(_pubSignals, 768)))\n            \n            checkField(calldataload(add(_pubSignals, 800)))\n            \n            checkField(calldataload(add(_pubSignals, 832)))\n            \n            checkField(calldataload(add(_pubSignals, 864)))\n            \n            checkField(calldataload(add(_pubSignals, 896)))\n            \n            checkField(calldataload(add(_pubSignals, 928)))\n            \n            checkField(calldataload(add(_pubSignals, 960)))\n            \n            checkField(calldataload(add(_pubSignals, 992)))\n            \n            checkField(calldataload(add(_pubSignals, 1024)))\n            \n            checkField(calldataload(add(_pubSignals, 1056)))\n            \n            checkField(calldataload(add(_pubSignals, 1088)))\n            \n            checkField(calldataload(add(_pubSignals, 1120)))\n            \n            checkField(calldataload(add(_pubSignals, 1152)))\n            \n            checkField(calldataload(add(_pubSignals, 1184)))\n            \n            checkField(calldataload(add(_pubSignals, 1216)))\n            \n            checkField(calldataload(add(_pubSignals, 1248)))\n            \n            checkField(calldataload(add(_pubSignals, 1280)))\n            \n            checkField(calldataload(add(_pubSignals, 1312)))\n            \n            checkField(calldataload(add(_pubSignals, 1344)))\n            \n            checkField(calldataload(add(_pubSignals, 1376)))\n            \n            checkField(calldataload(add(_pubSignals, 1408)))\n            \n            checkField(calldataload(add(_pubSignals, 1440)))\n            \n            checkField(calldataload(add(_pubSignals, 1472)))\n            \n            checkField(calldataload(add(_pubSignals, 1504)))\n            \n            checkField(calldataload(add(_pubSignals, 1536)))\n            \n            checkField(calldataload(add(_pubSignals, 1568)))\n            \n            checkField(calldataload(add(_pubSignals, 1600)))\n            \n            checkField(calldataload(add(_pubSignals, 1632)))\n            \n            checkField(calldataload(add(_pubSignals, 1664)))\n            \n            checkField(calldataload(add(_pubSignals, 1696)))\n            \n            checkField(calldataload(add(_pubSignals, 1728)))\n            \n            checkField(calldataload(add(_pubSignals, 1760)))\n            \n            checkField(calldataload(add(_pubSignals, 1792)))\n            \n            checkField(calldataload(add(_pubSignals, 1824)))\n            \n            checkField(calldataload(add(_pubSignals, 1856)))\n            \n            checkField(calldataload(add(_pubSignals, 1888)))\n            \n            checkField(calldataload(add(_pubSignals, 1920)))\n            \n            checkField(calldataload(add(_pubSignals, 1952)))\n            \n            checkField(calldataload(add(_pubSignals, 1984)))\n            \n            checkField(calldataload(add(_pubSignals, 2016)))\n            \n            checkField(calldataload(add(_pubSignals, 2048)))\n            \n            checkField(calldataload(add(_pubSignals, 2080)))\n            \n            checkField(calldataload(add(_pubSignals, 2112)))\n            \n            checkField(calldataload(add(_pubSignals, 2144)))\n            \n            checkField(calldataload(add(_pubSignals, 2176)))\n            \n            checkField(calldataload(add(_pubSignals, 2208)))\n            \n            checkField(calldataload(add(_pubSignals, 2240)))\n            \n            checkField(calldataload(add(_pubSignals, 2272)))\n            \n            checkField(calldataload(add(_pubSignals, 2304)))\n            \n            checkField(calldataload(add(_pubSignals, 2336)))\n            \n            checkField(calldataload(add(_pubSignals, 2368)))\n            \n            checkField(calldataload(add(_pubSignals, 2400)))\n            \n            checkField(calldataload(add(_pubSignals, 2432)))\n            \n            checkField(calldataload(add(_pubSignals, 2464)))\n            \n            checkField(calldataload(add(_pubSignals, 2496)))\n            \n            checkField(calldataload(add(_pubSignals, 2528)))\n            \n            checkField(calldataload(add(_pubSignals, 2560)))\n            \n            checkField(calldataload(add(_pubSignals, 2592)))\n            \n            checkField(calldataload(add(_pubSignals, 2624)))\n            \n            checkField(calldataload(add(_pubSignals, 2656)))\n            \n            checkField(calldataload(add(_pubSignals, 2688)))\n            \n            checkField(calldataload(add(_pubSignals, 2720)))\n            \n            checkField(calldataload(add(_pubSignals, 2752)))\n            \n            checkField(calldataload(add(_pubSignals, 2784)))\n            \n            checkField(calldataload(add(_pubSignals, 2816)))\n            \n            checkField(calldataload(add(_pubSignals, 2848)))\n            \n            checkField(calldataload(add(_pubSignals, 2880)))\n            \n            checkField(calldataload(add(_pubSignals, 2912)))\n            \n            checkField(calldataload(add(_pubSignals, 2944)))\n            \n            checkField(calldataload(add(_pubSignals, 2976)))\n            \n            checkField(calldataload(add(_pubSignals, 3008)))\n            \n            checkField(calldataload(add(_pubSignals, 3040)))\n            \n            checkField(calldataload(add(_pubSignals, 3072)))\n            \n            checkField(calldataload(add(_pubSignals, 3104)))\n            \n            checkField(calldataload(add(_pubSignals, 3136)))\n            \n            checkField(calldataload(add(_pubSignals, 3168)))\n            \n            checkField(calldataload(add(_pubSignals, 3200)))\n            \n            checkField(calldataload(add(_pubSignals, 3232)))\n            \n            checkField(calldataload(add(_pubSignals, 3264)))\n            \n            checkField(calldataload(add(_pubSignals, 3296)))\n            \n            checkField(calldataload(add(_pubSignals, 3328)))\n            \n            checkField(calldataload(add(_pubSignals, 3360)))\n            \n            checkField(calldataload(add(_pubSignals, 3392)))\n            \n            checkField(calldataload(add(_pubSignals, 3424)))\n            \n            checkField(calldataload(add(_pubSignals, 3456)))\n            \n            checkField(calldataload(add(_pubSignals, 3488)))\n            \n            checkField(calldataload(add(_pubSignals, 3520)))\n            \n            checkField(calldataload(add(_pubSignals, 3552)))\n            \n            checkField(calldataload(add(_pubSignals, 3584)))\n            \n            checkField(calldataload(add(_pubSignals, 3616)))\n            \n            checkField(calldataload(add(_pubSignals, 3648)))\n            \n            checkField(calldataload(add(_pubSignals, 3680)))\n            \n            checkField(calldataload(add(_pubSignals, 3712)))\n            \n            checkField(calldataload(add(_pubSignals, 3744)))\n            \n            checkField(calldataload(add(_pubSignals, 3776)))\n            \n            checkField(calldataload(add(_pubSignals, 3808)))\n            \n            checkField(calldataload(add(_pubSignals, 3840)))\n            \n            checkField(calldataload(add(_pubSignals, 3872)))\n            \n            checkField(calldataload(add(_pubSignals, 3904)))\n            \n            checkField(calldataload(add(_pubSignals, 3936)))\n            \n            checkField(calldataload(add(_pubSignals, 3968)))\n            \n            checkField(calldataload(add(_pubSignals, 4000)))\n            \n            checkField(calldataload(add(_pubSignals, 4032)))\n            \n            checkField(calldataload(add(_pubSignals, 4064)))\n            \n            checkField(calldataload(add(_pubSignals, 4096)))\n            \n            checkField(calldataload(add(_pubSignals, 4128)))\n            \n            checkField(calldataload(add(_pubSignals, 4160)))\n            \n            checkField(calldataload(add(_pubSignals, 4192)))\n            \n            checkField(calldataload(add(_pubSignals, 4224)))\n            \n            checkField(calldataload(add(_pubSignals, 4256)))\n            \n            checkField(calldataload(add(_pubSignals, 4288)))\n            \n            checkField(calldataload(add(_pubSignals, 4320)))\n            \n            checkField(calldataload(add(_pubSignals, 4352)))\n            \n            checkField(calldataload(add(_pubSignals, 4384)))\n            \n            checkField(calldataload(add(_pubSignals, 4416)))\n            \n            checkField(calldataload(add(_pubSignals, 4448)))\n            \n            checkField(calldataload(add(_pubSignals, 4480)))\n            \n            checkField(calldataload(add(_pubSignals, 4512)))\n            \n            checkField(calldataload(add(_pubSignals, 4544)))\n            \n            checkField(calldataload(add(_pubSignals, 4576)))\n            \n            checkField(calldataload(add(_pubSignals, 4608)))\n            \n            checkField(calldataload(add(_pubSignals, 4640)))\n            \n            checkField(calldataload(add(_pubSignals, 4672)))\n            \n            checkField(calldataload(add(_pubSignals, 4704)))\n            \n            checkField(calldataload(add(_pubSignals, 4736)))\n            \n            checkField(calldataload(add(_pubSignals, 4768)))\n            \n            checkField(calldataload(add(_pubSignals, 4800)))\n            \n            checkField(calldataload(add(_pubSignals, 4832)))\n            \n            checkField(calldataload(add(_pubSignals, 4864)))\n            \n            checkField(calldataload(add(_pubSignals, 4896)))\n            \n            checkField(calldataload(add(_pubSignals, 4928)))\n            \n            checkField(calldataload(add(_pubSignals, 4960)))\n            \n            checkField(calldataload(add(_pubSignals, 4992)))\n            \n            checkField(calldataload(add(_pubSignals, 5024)))\n            \n            checkField(calldataload(add(_pubSignals, 5056)))\n            \n            checkField(calldataload(add(_pubSignals, 5088)))\n            \n            checkField(calldataload(add(_pubSignals, 5120)))\n            \n            checkField(calldataload(add(_pubSignals, 5152)))\n            \n\n            // Validate all evaluations\n            let isValid := checkPairing(_pA, _pB, _pC, _pubSignals, pMem)\n\n            mstore(0, isValid)\n            return(0, 0x20)\n        }\n    }\n}\n",
  "sourcePath": "C:\\College\\Blockchain\\SudokuSolver_ZKP\\contracts\\Verifier.sol",
  "compiler": {
    "name": "solc",
    "version": "0.8.21+commit.d9974bed.Emscripten.clang"
  },
  "schemaVersion": "3.4.16",
  "updatedAt": "2025-09-13T12:16:43.560Z",
  "networkType": "ethereum",
  "devdoc": {
    "kind": "dev",
    "methods": {},
    "version": 1
  },
  "userdoc": {
    "kind": "user",
    "methods": {},
    "version": 1
  }
}