{
  "contractName": "SudokuVerifierConsumer",
  "abi": [
    {
      "inputs": [
        {
          "internalType": "address",
          "name": "_verifier",
          "type": "address"
        }
      ],
      "stateMutability": "nonpayable",
      "type": "constructor"
    },
    {
      "anonymous": false,
      "inputs": [
        {
          "indexed": true,
          "internalType": "bytes32",
          "name": "proofKey",
          "type": "bytes32"
        },
        {
          "indexed": true,
          "internalType": "bytes32",
          "name": "puzzleHash",
          "type": "bytes32"
        },
        {
          "indexed": false,
          "internalType": "uint256",
          "name": "time",
          "type": "uint256"
        }
      ],
      "name": "PuzzleProved",
      "type": "event"
    },
    {
      "inputs": [
        {
          "internalType": "bytes32",
          "name": "",
          "type": "bytes32"
        }
      ],
      "name": "proofs",
      "outputs": [
        {
          "internalType": "bool",
          "name": "exists",
          "type": "bool"
        },
        {
          "internalType": "bytes32",
          "name": "puzzleHash",
          "type": "bytes32"
        },
        {
          "internalType": "uint256",
          "name": "timestamp",
          "type": "uint256"
        }
      ],
      "stateMutability": "view",
      "type": "function",
      "constant": true
    },
    {
      "inputs": [],
      "name": "verifier",
      "outputs": [
        {
          "internalType": "contract Groth16Verifier",
          "name": "",
          "type": "address"
        }
      ],
      "stateMutability": "view",
      "type": "function",
      "constant": true
    },
    {
      "inputs": [
        {
          "internalType": "uint256[2]",
          "name": "a",
          "type": "uint256[2]"
        },
        {
          "internalType": "uint256[2][2]",
          "name": "b",
          "type": "uint256[2][2]"
        },
        {
          "internalType": "uint256[2]",
          "name": "c",
          "type": "uint256[2]"
        },
        {
          "internalType": "uint256[162]",
          "name": "publicSignals",
          "type": "uint256[162]"
        },
        {
          "internalType": "uint256[81]",
          "name": "unsolved",
          "type": "uint256[81]"
        },
        {
          "internalType": "uint256[81]",
          "name": "clueFlags",
          "type": "uint256[81]"
        }
      ],
      "name": "submitProof",
      "outputs": [],
      "stateMutability": "nonpayable",
      "type": "function"
    }
  ],
  "bytecode": "0x608060405234801561000f575f80fd5b5060405161068638038061068683398101604081905261002e91610052565b5f80546001600160a01b0319166001600160a01b039290921691909117905561007f565b5f60208284031215610062575f80fd5b81516001600160a01b0381168114610078575f80fd5b9392505050565b6105fa8061008c5f395ff3fe608060405234801561000f575f80fd5b506004361061003f575f3560e01c80632b7ac3f314610043578063444d95b014610072578063e89efba3146100c2575b5f80fd5b5f54610055906001600160a01b031681565b6040516001600160a01b0390911681526020015b60405180910390f35b6100a56100803660046103df565b600160208190525f918252604090912080549181015460029091015460ff9092169183565b604080519315158452602084019290925290820152606001610069565b6100d56100d0366004610417565b6100d7565b005b6100e5565b60405180910390fd5b5f5b60518110156101e7578281605181106101025761010261049b565b6020020135848260a281106101195761011961049b565b60200201351461015f5760405162461bcd60e51b81526020600482015260116024820152700eadce6ded8eccac840dad2e6dac2e8c6d607b1b60448201526064016100dc565b8181605181106101715761017161049b565b6020020135846101828360516104c3565b60a281106101925761019261049b565b6020020135146101d55760405162461bcd60e51b815260206004820152600e60248201526d0ccd8c2cee640dad2e6dac2e8c6d60931b60448201526064016100dc565b806101df816104d6565b9150506100e7565b505f546040516312a1289d60e01b81526001600160a01b03909116906312a1289d9061021d9089908990899089906004016104ee565b602060405180830381865afa158015610238573d5f803e3d5ffd5b505050506040513d601f19601f8201168201806040525081019061025c919061053a565b6102985760405162461bcd60e51b815260206004820152600d60248201526c34b73b30b634b210383937b7b360991b60448201526064016100dc565b5f6102a383836103ac565b90505f878787846040516020016102bd9493929190610560565b60408051601f1981840301815291815281516020928301205f818152600190935291205490915060ff16156103255760405162461bcd60e51b815260206004820152600e60248201526d185b1c9958591e481cdd1bdc995960921b60448201526064016100dc565b6040805160608101825260018082526020808301868152428486018181525f8881528585528790209551865460ff1916901515178655915193850193909355516002909301929092559151918252839183917f4889357395ed6ccb07686060e8e1a259ea75cfd8d3d8706ffb245bf6d9ba91f0910160405180910390a35050505050505050565b5f82826040516020016103c09291906105aa565b6040516020818303038152906040528051906020012090505b92915050565b5f602082840312156103ef575f80fd5b5035919050565b80604081018310156103d9575f80fd5b80610a2081018310156103d9575f80fd5b5f805f805f80612980878903121561042d575f80fd5b61043788886103f6565b955060c0870188811115610449575f80fd5b60408801955061045989826103f6565b94505061154087018881111561046d575f80fd5b6101008801935061047e8982610406565b92505061048f88611f608901610406565b90509295509295509295565b634e487b7160e01b5f52603260045260245ffd5b634e487b7160e01b5f52601160045260245ffd5b808201808211156103d9576103d96104af565b5f600182016104e7576104e76104af565b5060010190565b6115408101604080878437808301865f5b600281101561051c578382843791830191908301906001016104ff565b505050808560c0850137506114408361010084013795945050505050565b5f6020828403121561054a575f80fd5b81518015158114610559575f80fd5b9392505050565b5f604080878437808301865f5b600281101561058a5783828437918301919083019060010161056d565b505050808560c08501375050610100810191909152610120019392505050565b5f610a20808584378084828501375050611440019291505056fea2646970667358221220a740db2cfd2b8956a7f01f31913e95c29ee0eafd63b8a74ab7df4282321d66e264736f6c63430008150033",
  "immutableReferences": {},
  "source": "// SPDX-License-Identifier: MIT\r\npragma solidity ^0.8.21;\r\n\r\n// Import the actual Verifier contract\r\nimport \"./Verifier.sol\";\r\n\r\n/**\r\n * @title SudokuVerifierConsumer\r\n * @notice Wraps the autogenerated Verifier.sol (Groth16) to store proven puzzles.\r\n * Uses the actual Verifier contract generated by snarkjs.\r\n */\r\ncontract SudokuVerifierConsumer {\r\n    Groth16Verifier public verifier;\r\n\r\n    struct ProofRecord {\r\n        bool exists;\r\n        bytes32 puzzleHash;\r\n        uint256 timestamp;\r\n    }\r\n\r\n    mapping(bytes32 => ProofRecord) public proofs;\r\n\r\n    event PuzzleProved(bytes32 indexed proofKey, bytes32 indexed puzzleHash, uint256 time);\r\n\r\n    constructor(address _verifier) {\r\n        verifier = Groth16Verifier(_verifier);\r\n    }\r\n\r\n    function _hashPuzzle(uint256[81] calldata unsolved, uint256[81] calldata clueFlags) internal pure returns (bytes32) {\r\n        return keccak256(abi.encodePacked(unsolved, clueFlags));\r\n    }\r\n\r\n    function submitProof(\r\n        uint256[2] calldata a,\r\n        uint256[2][2] calldata b,\r\n        uint256[2] calldata c,\r\n        uint256[162] calldata publicSignals,\r\n        uint256[81] calldata unsolved,\r\n        uint256[81] calldata clueFlags\r\n    ) external {\r\n        require(publicSignals.length == 162, \"bad signals len\");\r\n        for (uint256 i=0;i<81;i++) {\r\n            require(publicSignals[i] == unsolved[i], \"unsolved mismatch\");\r\n            require(publicSignals[81+i] == clueFlags[i], \"flags mismatch\");\r\n        }\r\n        require(verifier.verifyProof(a, b, c, publicSignals), \"invalid proof\");\r\n\r\n        bytes32 puzzleHash = _hashPuzzle(unsolved, clueFlags);\r\n        bytes32 key = keccak256(abi.encodePacked(a, b, c, puzzleHash));\r\n        require(!proofs[key].exists, \"already stored\");\r\n        proofs[key] = ProofRecord({exists:true, puzzleHash:puzzleHash, timestamp:block.timestamp});\r\n        emit PuzzleProved(key, puzzleHash, block.timestamp);\r\n    }\r\n}\r\n",
  "sourcePath": "C:\\College\\Blockchain\\SudokuSolver_ZKP\\contracts\\SudokuVerifierConsumer.sol",
  "compiler": {
    "name": "solc",
    "version": "0.8.21+commit.d9974bed.Emscripten.clang"
  },
  "schemaVersion": "3.4.16",
  "updatedAt": "2025-09-13T12:16:43.533Z",
  "networkType": "ethereum",
  "devdoc": {
    "kind": "dev",
    "methods": {},
    "title": "SudokuVerifierConsumer",
    "version": 1
  },
  "userdoc": {
    "kind": "user",
    "methods": {},
    "notice": "Wraps the autogenerated Verifier.sol (Groth16) to store proven puzzles. Uses the actual Verifier contract generated by snarkjs.",
    "version": 1
  }
}